:020000040000FA
:060000001EEF47F01200A4
:020006001200E6
:060008004FEF45F012006D
:02000E000604E6
:0100100037B8
:0400110000000000EB
:06001800D1EF44F01200DC
:02001E000C00D4
:100020006692000080000000480000004B92000033
:10003000E50000001B00000011000000FB030000B1
:10004000040000006591000000020000E6000000CE
:100050007590000000010000F0000000AA8F000071
:1000600000030000CB000000E18E0000000400004F
:10007000C9000000C48E0000C80000001D00000080
:100080000E000000F304000003000000A48E000036
:10009000C904000020000000948E0000F001000060
:1000A00010000000748E0000CB0300002000000050
:1000B000D9CFE6FFE1CFD9FF0A0E146E0E6EFC0E0B
:1000C000DBCF09F0C3EC45F009C010F0116A126AE9
:1000D000136A10AE03D011681268136810C0E6FFEF
:1000E00011C0E6FF12C0E6FF13C0E6FFFD0EDBCF36
:1000F000E6FFFE0EDBCFE6FF71EC27F0156E060E75
:10010000E15E1550FC0EDBCF14F014C009F00A0EAE
:100110000E6EC3EC45F005C010F0116A126A136A46
:1001200010AE03D011681268136810C0E6FF11C04A
:10013000E6FF12C0E6FF13C0E6FFFD0EDB28E66E09
:10014000FE0EDBCFE6FF71EC27F0156E060EE15ECA
:100150001550D00EE66E720EE66EFD0EDB50020FED
:10016000E66EFE0EDBCFE6FF98EC28F0E552E55296
:10017000E552E5520A0E146E0E6EFB0EDBCF09F04F
:10018000C3EC45F009C010F0116A126A136A10AE90
:1001900003D011681268136810C0E6FF11C0E6FFB3
:1001A00012C0E6FF13C0E6FFFD0EDB50030FE66E44
:1001B000FE0EDBCFE6FF71EC27F0156E060EE15E5A
:1001C0001550FB0EDBCF14F014C009F00A0E0E6EB2
:1001D000C3EC45F005C010F0116A126A136A10AE44
:1001E00003D011681268136810C0E6FF11C0E6FF63
:1001F00012C0E6FF13C0E6FFFD0EDB50040FE66EF3
:10020000FE0EDBCFE6FF71EC27F0156E060EE15E09
:100210001550E552E7CFD9FF1200D9CFE6FFE1CF65
:10022000D9FF03010429106E096E140E0E6EC3EC83
:1002300045F005C004F30A0E0301E76E0518E8AEA9
:1002400002D0E73402D0E750045D18E200018A5181
:100250008B1114E18851891111E1CD0EE66E720EF9
:10026000E66EFD0EDBCFE6FFFE0EDBCFE6FF98EC81
:1002700028F0E552E552E552E5524DD00A0E146ED3
:100280000E6EFC0EDBCF09F0C3EC45F009C010F098
:10029000116A126A136A10AE03D0116812681368EB
:1002A00010C0E6FF11C0E6FF12C0E6FF13C0E6FF74
:1002B000FD0EDBCFE6FFFE0EDBCFE6FF71EC27F095
:1002C000156E060EE15E1550FC0EDBCF14F014C067
:1002D00009F00A0E0E6EC3EC45F005C010F0116A6D
:1002E000126A136A10AE03D011681268136810C046
:1002F000E6FF11C0E6FF12C0E6FF13C0E6FFFD0EE9
:10030000DB28E66EFE0EDBCFE6FF71EC27F0156E04
:10031000060EE15E1550E552E7CFD9FF1200D9CFA6
:10032000E6FFE1CFD9FF120EE126DE6ADD6A020E9A
:10033000DB6A030EDB6AD950040FE96EDACFEAFFFD
:10034000EE6AEE6AEE6AEE6AEE6AEE6AEE6AEE6AED
:10035000EE6AEE6AEE6AEE6AEE6AEE6A0301015137
:10036000F36EFE0EDBCFF4FFF350F45C01E3C0D07C
:10037000FE0EDBCF10F0116A10BE116810C0DEFF58
:1003800011C0DDFFDECF10F0DDCF11F0030101055C
:10039000000111AE02D0D89003D0105C000E1158AD
:1003A00065E2DECFE9FFDDCFEAFF010EE926000EB0
:1003B000EA22040ED890E936EA36E806FBE1070E99
:1003C000E926030EEA22EECF10F0EECF11F0EECFC9
:1003D00012F0EECF13F0EECF14F0EECF15F0EECF1B
:1003E00016F0EECF17F0EECF18F0EECF19F0EECFFB
:1003F0001AF0EECF1BF0EECF1CF0EECF1DF0EECFDB
:100400001EF0EFCF1FF0DECFE9FFDDCFEAFF040ED5
:10041000D890E936EA36E806FBE1070EE926030E36
:10042000EA2210C0EEFF11C0EEFF12C0EEFF13C0B3
:10043000EEFF14C0EEFF15C0EEFF16C0EEFF17C0B2
:10044000EEFF18C0EEFF19C0EEFF1AC0EEFF1BC092
:10045000EEFF1CC0EEFF1DC0EEFF1EC0EEFF1FC072
:10046000EEFFDF2A010E8EE3DB2A8CD7DECFE9FF19
:10047000DDCFEAFF040ED890E936EA36E806FBE164
:10048000070EE926030EEA22020EDBCFEEFF030E73
:10049000DBCFEEFF040EDBCFEEFF050EDBCFEEFF72
:1004A000060EDBCFEEFF070EDBCFEEFF080EDBCF35
:1004B000EEFF090EDBCFEEFF0A0EDBCFEEFF0B0ED9
:1004C000DBCFEEFF0C0EDBCFEEFF0D0EDBCFEEFF32
:1004D0000E0EDBCFEEFF0F0EDBCFEEFF100EDBCFED
:1004E000EEFF110EDBCFEEFF03010107010ECA6F15
:1004F000120EE15C02E2E16AE552E16EE552E7CFFD
:10050000D9FF1200D9CFE6FFE1CFD9FF0301015196
:10051000100DF3CFE9FFF4CFEAFF070EE926030E33
:10052000EA22EF0EDBCFEEFFF00EDBCFEDFF015145
:10053000100DF3CFE9FFF4CFEAFF070EE926030E13
:10054000EA22040EE926000EEA22F30EDBCFEEFFCC
:10055000F40EDBCFEDFF0151100DF3CFE9FFF4CF27
:10056000EAFF070EE926030EEA22020EE926000E34
:10057000EA22F10EDBCFEEFFF20EDBCFEDFF0151F1
:10058000100DF3CFE9FFF4CFEAFF070EE926030EC3
:10059000EA22060EE926000EEA22F50EDBCFEEFF78
:1005A000F60EDBCFEDFF0151100DF3CFE9FFF4CFD5
:1005B000EAFF070EE926030EEA220A0EE926000EDC
:1005C000EA22F90EDBCFEEFFFA0EDBCFEDFF015191
:1005D000100DF3CFE9FFF4CFEAFF070EE926030E73
:1005E000EA220E0EE926000EEA22FD0EDBCFEEFF18
:1005F000FE0EDBCFEDFF0151100DF3CFE9FFF4CF7D
:10060000EAFF070EE926030EEA22080EE926000E8D
:10061000EA22F70EDBCFEEFFF80EDBCFEDFF015144
:10062000100DF3CFE9FFF4CFEAFF070EE926030E22
:10063000EA220C0EE926000EEA22FB0EDBCFEEFFCB
:10064000FC0EDBCFEDFF012B010ECA6FE552E7CFA9
:10065000D9FF1200D9CFE6FFE1CFD9FFEE0EDBCFF5
:10066000E9FFEA6AE9BEEA68040ED890E936EA369C
:10067000E806FBE1070EE926030EEA22EF0EDBCFC8
:10068000EEFFF00EDBCFEDFFEE0EDBCFE9FFEA6A07
:10069000E9BEEA68040ED890E936EA36E806FBE1DE
:1006A000070EE926030EEA22040EE926000EEA22CE
:1006B000F30EDBCFEEFFF40EDBCFEDFFEE0EDBCF64
:1006C000E9FFEA6AE9BEEA68040ED890E936EA363C
:1006D000E806FBE1070EE926030EEA22020EE926F0
:1006E000000EEA22F10EDBCFEEFFF20EDBCFEDFFC4
:1006F000EE0EDBCFE9FFEA6AE9BEEA68040ED890A5
:10070000E936EA36E806FBE1070EE926030EEA229F
:10071000060EE926000EEA22F50EDBCFEEFFF60EFE
:10072000DBCFEDFFEE0EDBCFE9FFEA6AE9BEEA6858
:10073000040ED890E936EA36E806FBE1070EE92612
:10074000030EEA220A0EE926000EEA22F90EDBCF9A
:10075000EEFFFA0EDBCFEDFFEE0EDBCFE9FFEA6A2C
:10076000E9BEEA68040ED890E936EA36E806FBE10D
:10077000070EE926030EEA220E0EE926000EEA22F3
:10078000FD0EDBCFEEFFFE0EDBCFEDFFEE0EDBCF7F
:10079000E9FFEA6AE9BEEA68040ED890E936EA366B
:1007A000E806FBE1070EE926030EEA22080EE92619
:1007B000000EEA22F70EDBCFEEFFF80EDBCFEDFFE7
:1007C000EE0EDBCFE9FFEA6AE9BEEA68040ED890D4
:1007D000E936EA36E806FBE1070EE926030EEA22CF
:1007E0000C0EE926000EEA22FB0EDBCFEEFFFC0E1C
:1007F000DBCFEDFF0301010ECA6FE552E7CFD9FF52
:100800001200D9CFE6FFE1CFD9FF030EE126DE6A61
:10081000DD6A020EDB6AFD0EDBCFE9FFFE0EDBCFE9
:10082000EAFFEF6A03010051040A01E195D3070AC8
:1008300001E1EED2010A01E1CED2030A01E136D193
:10084000010A01E0D8D3E66ADEEC29F0E5520301A3
:100850000129E66EC2EC28F0E5520301CA0501E069
:10086000B6D0CA6B02C340F2DE6ADD6ADECF10F09A
:10087000DDCF11F003010151000111AE02D0D8907B
:1008800003D0105C000E115801E3A1D0DECF10F0B0
:10089000DDCF11F0010E1026000E1122126A136A2C
:1008A00011AE02D01268136810C0E6FF11C0E6FF57
:1008B00012C0E6FF13C0E6FFE66ADFCFE6FF71EC89
:1008C00027F0146E060EE15E1450CB0EE66E720E2B
:1008D000E66E010EE66EDFCFE6FF98EC28F0E552FB
:1008E000E552E552E552DECFE9FFDDCFEAFF040E27
:1008F000D890E936EA36E806FBE1070EE926030E52
:10090000EA22020EE926000EEA22EF50E66EDECF62
:10091000E9FFDDCFEAFF040ED890E936EA36E806B3
:10092000FBE1070EE926030EEA22EF50E66E020E07
:10093000E66EDFCFE6FF58EC00F0E552E552E552F7
:10094000E552C80EE66E720EE66E070EE66EDFCF5B
:10095000E6FF98EC28F0E552E552E552E552DECF8D
:10096000E9FFDDCFEAFF040ED890E936EA36E80663
:10097000FBE1070EE926030EEA22060EE926000E29
:10098000EA22EF50E66EDECFE9FFDDCFEAFF040E8C
:10099000D890E936EA36E806FBE1070EE926030EB1
:1009A000EA22040EE926000EEA22EF50E66E090E56
:1009B000E66EDFCFE6FF58EC00F0E552E552E55277
:1009C000E552DF2A010E01E251D7DB2A4FD7B50EDF
:1009D000E66E720EE66EE66A01C3E6FF98EC28F05A
:1009E000E552E552E552E552060EE66E42EC36F06F
:1009F000E552E76E020EE7CFDBFFDB0439E140C2D0
:100A000002F303010251100DF3CFE9FFF4CFEAFF27
:100A1000070EE926030EEA22EECFA7F3EECFA8F3E6
:100A2000EECFA9F3EECFAAF3EECFABF3EECFACF35C
:100A3000EECFADF3EECFAEF3EECFAFF3EECFB0F33C
:100A4000EECFB1F3EECFB2F3EECFB3F3EECFB4F31C
:100A5000EECFB5F3EFCFB6F301510201405D03E1F4
:100A60000301010E036F0301010E006FFDEC25F081
:100A7000020EDB5002080AE1030101510201405D50
:100A800005E040C202F30301040E006F020EDB50CA
:100A9000030801E0B0D2FD0EDBCFE9FFFE0EDBCF95
:100AA000EAFF010EEF6E0301CA6FA5D2E66ADEEC23
:100AB00029F0E552040EE66EC2EC28F0E552AE0EC7
:100AC000E66E720EE66EE66AE66A98EC28F0E5528B
:100AD000E552E552E552A9C3E6FFA7C3E6FF060EBD
:100AE000E66EE66A58EC00F0E552E552E552E55252
:100AF000A90EE66E720EE66EE66A010EE66E98ECE0
:100B000028F0E552E552E552E552ADC3E6FFABC32E
:100B1000E6FF060EE66E010EE66E58EC00F0E552BA
:100B2000E552E552E552990EE66E720EE66EE66A01
:100B3000020EE66E98EC28F0E552E552E552E552D9
:100B4000B1C310F0B2C311F00A0E0D6E0E6AB1C33C
:100B500008F0B2C309F0F8EC46F008C010F009C084
:100B600011F0126A136A08C0E6FF09C0E6FF12C05E
:100B7000E6FF13C0E6FF060EE66E020EE66E71ECAF
:100B800027F0146E060EE15E1450B1C310F0B2C32C
:100B900011F00A0E0D6E0E6AB1C308F0B2C309F06F
:100BA000F8EC46F004C010F005C011F0126A136AA8
:100BB00004C0E6FF05C0E6FF12C0E6FF13C0E6FF73
:100BC000070EE66E020EE66E71EC27F0146E060E4E
:100BD000E15E1450AFC310F0B0C311F00A0E0D6EF9
:100BE0000E6AAFC308F0B0C309F0F8EC46F008C0D5
:100BF00010F009C011F0126A136A08C0E6FF09C0BC
:100C0000E6FF12C0E6FF13C0E6FF0B0EE66E020E13
:100C1000E66E71EC27F0146E060EE15E1450AFC361
:100C200010F0B0C311F00A0E0D6E0E6AAFC308F0DB
:100C3000B0C309F0F8EC46F004C010F005C011F0A4
:100C4000126A136A04C0E6FF05C0E6FF12C0E6FFA1
:100C500013C0E6FF0C0EE66E020EE66E71EC27F096
:100C6000146E060EE15E1450890EE66E720EE66E8C
:100C7000E66A030EE66E98EC28F0E552E552E5527E
:100C8000E552B5C310F0B6C311F00A0E0D6E0E6A30
:100C9000B5C308F0B6C309F0F8EC46F008C010F090
:100CA00009C011F0126A136A08C0E6FF09C0E6FF26
:100CB00012C0E6FF13C0E6FF060EE66E030EE66EF8
:100CC00071EC27F0146E060EE15E1450B5C310F0FF
:100CD000B6C311F00A0E0D6E0E6AB5C308F0B6C3A6
:100CE00009F0F8EC46F004C010F005C011F0126AEB
:100CF000136A04C0E6FF05C0E6FF12C0E6FF13C09A
:100D0000E6FF070EE66E030EE66E71EC27F0146E3A
:100D1000060EE15E1450B3C310F0B4C311F00A0E16
:100D20000D6E0E6AB3C308F0B4C309F0F8EC46F0D8
:100D300008C010F009C011F0126A136A08C0E6FF7B
:100D400009C0E6FF12C0E6FF13C0E6FF0B0EE66E19
:100D5000030EE66E71EC27F0146E060EE15E145081
:100D6000B3C310F0B4C311F00A0E0D6E0E6AB3C314
:100D700008F0B4C309F0F8EC46F004C010F005C068
:100D800011F0126A136A04C0E6FF05C0E6FF12C044
:100D9000E6FF13C0E6FF0C0EE66E030EE66E71EC86
:100DA00027F0146E060EE15E1450060EE66E42EC5D
:100DB00036F0E552E76E020EE7CFDBFFDB0405E11C
:100DC00040C205F30301020E006F020EDB50030860
:100DD00001E011D117D0010EE66EDEEC29F0E552EC
:100DE00014D9060EE66E42EC36F0E552E76E020EBE
:100DF000E7CFDBFFDB50030801E0FDD0E66ADEEC65
:100E000029F0E5520301030E006FFDEC25F0F3D04D
:100E1000020EE66EC2EC28F0E552010EE66EDEEC44
:100E200029F0E552780EE66E720EE66EE66AE66A24
:100E300098EC28F0E552E552E552E552670EE66E71
:100E4000720EE66EE66A010EE66E98EC28F0E55248
:100E5000E552E552E552050EE66EFDEC35F0E55241
:100E600000096AE0030103052CE1036BA7C3E6FF59
:100E7000A8C3E6FFA9C3E6FFAAC3E6FFABC3E6FF2C
:100E8000ACC3E6FFADC3E6FFAEC3E6FFAFC3E6FF0C
:100E9000B0C3E6FFB1C3E6FFB2C3E6FFB3C3E6FFEC
:100EA000B4C3E6FFB5C3E6FFB6C3E6FF82EC02F0CB
:100EB000106E100EE15E105003010105E66EE66A49
:100EC0002ED00251100DF3CFE9FFF4CFEAFF070E49
:100ED000E926030EEA22A7C3EEFFA8C3EEFFA9C3CB
:100EE000EEFFAAC3EEFFABC3EEFFACC3EEFFADC394
:100EF000EEFFAEC3EEFFAFC3EEFFB0C3EEFFB1C374
:100F0000EEFFB2C3EEFFB3C3EEFFB4C3EEFFB5C353
:100F1000EEFFB6C3EEFF02C3E6FF010EE66E14EC71
:100F20000EF0E552E5520301010ECA6FE66ADEECEF
:100F300029F0E5520301006B040EE66EFDEC35F07E
:100F4000E552000958E00301010ECA6FE66ADEECC3
:100F500029F0E55203014ED0020EE66EC2EC28F0F5
:100F6000E552010EE66EDEEC29F0E552550EE66E16
:100F7000720EE66EE66AE66A98EC28F0E552E552F3
:100F8000E552E552430EE66E720EE66EE66A010E1B
:100F9000E66E98EC28F0E552E552E552E552050E72
:100FA000E66EFDEC35F0E552000916E002C3E6FFFF
:100FB000040EE66E14EC0EF0E552E55202C3E6FFB5
:100FC0008FEC01F0E5520301010ECA6FE66ADEEC18
:100FD00029F0E5520301006B040EE66EFDEC35F0DE
:100FE000E552000908E0E66ADEEC29F0E55203016B
:100FF000010ECA6F006B030EE15C02E2E16AE5528A
:10100000E16EE552E7CFD9FF120003010551030A53
:101010003BE0010A28E0030A14E0010A4BE13B0E21
:10102000E66E170EE66EA90EE66E030EE66EA70ECE
:10103000E66E030EE66E090EE66E060EE66EE66AD4
:1010400034D03B0EE66E170EE66EAD0EE66E030E66
:10105000E66EAB0EE66E030EE66E090EE66E060E4B
:10106000E66E010E21D0630EE66EE66EAF0EE66E02
:10107000030EE66EB10EE66E030EE66E0B0EE66E26
:10108000060EE66E020E10D0630EE66EE66EB30E2E
:10109000E66E030EE66EB50EE66E030EE66E0B0E02
:1010A000E66E060EE66E030EE66E1ED8106E090E94
:1010B000E15E10500301A751AB5DA851AC5904E2A9
:1010C000A7C3ABF3A8C3ACF3A751AB190CE1A8516C
:1010D000AC1909E1A951AD5DAA51AE5904E2A9C309
:1010E000ADF3AAC3AEF31200D9CFE6FFE1CFD9FF2B
:1010F000010EE66EDEEC29F0E55203010651010A0D
:1011000001E1D9D0010A01E0ABD1050EE66EFDEC9C
:1011100035F0E55200092CE0F70EDB28146E156A55
:1011200014BE1568FA0EDBCFE9FFFB0EDBCFEAFF3A
:10113000EECF12F0EFCF13F0010E1226000E1322A5
:1011400012C008F013C009F014C00DF015C00EF065
:10115000F8EC46F004C010F005C011F0FA0EDBCF39
:10116000E9FFFB0EDBCFEAFF04C0EEFF11C0EDFF8D
:10117000040EE66EFDEC35F0E552000923E0FA0EB0
:10118000DBCFE9FFFB0EDBCFEAFFEE50ED1011E104
:10119000F70EDBCF10F0116A10BE1168FA0EDBCF2C
:1011A000E9FFFB0EDBCFEAFF10C0EEFF11C0EDFF41
:1011B00009D0FA0EDBCFE9FFFB0EDBCFEAFFEE062C
:1011C000000EED5AFA0EDBCFE9FFFB0EDBCFEAFF94
:1011D000EF50E66EFD0EDBCFE6FFFE0EDBCFE6FF47
:1011E0000DEC01F0E552E552E552060EE66E42ECDA
:1011F00036F0E552010801E033D1FA0EDBCFE9FF0A
:10120000FB0EDBCFEAFFEECF10F0EFCF11F00A0EAE
:101210000D6E0E6A10C008F011C009F0F8EC46F02F
:1012200008C010F009C011F0126A136A08C0E6FF86
:1012300009C0E6FF12C0E6FF13C0E6FFFD0EDBCFDC
:10124000E6FFFE0EDBCFE6FF71EC27F0146E060E14
:10125000E15E1450FA0EDBCFE9FFFB0EDBCFEAFFB5
:10126000EECF10F0EFCF11F00A0E0D6E0E6A10C027
:1012700008F011C009F0F8EC46F004C010F005C009
:1012800011F0126A136A04C0E6FF05C0E6FF12C03F
:10129000E6FF13C0E6FFFD0EDB28E66EFE0EDBCF99
:1012A000E6FF71EC27F0146E060EE15E14500301A8
:1012B000010E066FD5D0050EE66EFDEC35F0E55259
:1012C00000092CE0F60EDB28146E156A14BE1568B2
:1012D000F80EDBCFE9FFF90EDBCFEAFFEECF12F01D
:1012E000EFCF13F0010E1226000E132212C008F0E9
:1012F00013C009F014C00DF015C00EF0F8EC46F064
:1013000004C010F005C011F0F80EDBCFE9FFF90EB4
:10131000DBCFEAFF04C0EEFF11C0EDFF040EE66E66
:10132000FDEC35F0E552000923E0F80EDBCFE9FFD4
:10133000F90EDBCFEAFFEE50ED1011E1F60EDBCF38
:1013400010F0116A10BE1168F80EDBCFE9FFF90E3C
:10135000DBCFEAFF10C0EEFF11C0EDFF09D0F80EA1
:10136000DBCFE9FFF90EDBCFEAFFEE06000EED5A08
:10137000F80EDBCFE9FFF90EDBCFEAFFEF50E66EA8
:10138000FC0EDBCFE6FFFE0EDBCFE6FF0DEC01F03F
:10139000E552E552E552060EE66E42EC36F0E552B5
:1013A00001085EE1F80EDBCFE9FFF90EDBCFEAFFC3
:1013B000EECF10F0EFCF11F00A0E0D6E0E6A10C0D6
:1013C00008F011C009F0F8EC46F008C010F009C0B0
:1013D00011F0126A136A08C0E6FF09C0E6FF12C0E6
:1013E000E6FF13C0E6FFFC0EDBCFE6FFFE0EDBCF11
:1013F000E6FF71EC27F0146E060EE15E1450F80E55
:10140000DBCFE9FFF90EDBCFEAFFEECF10F0EFCF35
:1014100011F00A0E0D6E0E6A10C008F011C009F02E
:10142000F8EC46F004C010F005C011F0126A136A1F
:1014300004C0E6FF05C0E6FF12C0E6FF13C0E6FFEA
:10144000FC0EDB28E66EFE0EDBCFE6FF71EC27F02C
:10145000146E060EE15E14500301066B010E006F60
:10146000E552E7CFD9FF1200D9CFE6FFE1CFD9FF90
:10147000050EE126DF6A010EF3C4DBFF020EF4C4A1
:10148000DBFF030EB9C3DBFF010EF36E040EF3CFD7
:10149000DBFF0301B75101E01ED1DF6A03010151F7
:1014A000DF5C01E312D1DFCFE9FFEA6AE9BEEA6857
:1014B000040ED890E936EA36E806FBE1070EE92685
:1014C000030EEA22EECF10F0EFCF11F00401F3513A
:1014D000126E136A1250105C1350115801E2F3D0CF
:1014E000DFCFE9FFEA6AE9BEEA68040ED890E93680
:1014F000EA36E806FBE1070EE926030EEA22EECF04
:1015000010F0EFCF11F00401F351126E136A125074
:10151000101824E11350111821E1DFCFE9FFEA6A26
:10152000E9BEEA68040ED890E936EA36E806FBE13F
:10153000070EE926030EEA22020EE926000EEA2231
:10154000EECF14F0EFCF15F00401F451166E176AC8
:101550001650145C1750155801E2B5D0040EDB0488
:101560002AE1040EDB6ADFCFE9FFEA6AE9BEEA6836
:10157000040ED890E936EA36E806FBE1070EE926C4
:10158000030EEA22010EEFCFDBFFDFCFE9FFEA6AAD
:10159000E9BEEA68040ED890E936EA36E806FBE1CF
:1015A000070EE926030EEA22020EE926000EEA22C1
:1015B000020EEFCFDBFFDFCFE9FFEA6AE9BEEA68A0
:1015C000040ED890E936EA36E806FBE1070EE92674
:1015D000030EEA22EECF10F0EFCF11F0010EDBCFB9
:1015E00012F0136A12BE13681250105C1350115897
:1015F0001EE2DFCFE9FFEA6AE9BEEA68040ED8908E
:10160000E936EA36E806FBE1070EE926030EEA2290
:10161000010EEFCFDBFFDFCFE9FFEA6AE9BEEA6840
:10162000040ED890E936EA36E806FBE13FD0DFCF7A
:10163000E9FFEA6AE9BEEA68040ED890E936EA36BC
:10164000E806FBE1070EE926030EEA22020EE92670
:10165000000EEA22EECF10F0EFCF11F0020EDBCF3A
:1016600012F0136A12BE13681250105C1350115816
:101670002AE2DFCFE9FFEA6AE9BEEA68040ED89001
:10168000E936EA36E806FBE1070EE926030EEA2210
:10169000010EEFCFDBFFDFCFE9FFEA6AE9BEEA68C0
:1016A000040ED890E936EA36E806FBE1070EE92693
:1016B000030EEA22020EE926000EEA22020EEFCF06
:1016C000DBFFDFCFB9F3DF2AE9D6030EDB50B95DCC
:1016D00002E0010EB86F050EE15C02E2E16AE5523C
:1016E000E16EE552E7CFD9FF12000301B80501E032
:1016F0008DD0B951100DF3CFE9FFF4CFEAFF070EFB
:10170000E926030EEA22EECF10F0EFCF11F004012C
:10171000F351126E136A1250101801E077D0135073
:10172000111874E10301B951100DF3CFE9FFF4CFA3
:10173000EAFF070EE926030EEA22020EE926000E52
:10174000EA22EECF14F0EFCF15F00401F451166E3B
:10175000176A165014185AE11750151857E101016D
:10176000F9510301C46FC56B0101FA510301C26F46
:10177000C36B0101FB510301C86FC96B0101FC512F
:101780000301C66FC76BB951100DF3CFE9FFF4CF5A
:10179000EAFF070EE926030EEA220A0EE926000EEA
:1017A000EA22EFCFF9F1B951100DF3CFE9FFF4CFF1
:1017B000EAFF070EE926030EEA22080EE926000ECC
:1017C000EA22EFCFFAF1B951100DF3CFE9FFF4CFD0
:1017D000EAFF070EE926030EEA220E0EE926000EA6
:1017E000EA22EFCFFBF1B951100DF3CFE9FFF4CFAF
:1017F000EAFF070EE926030EEA220C0EE926000E88
:10180000EA22EFCFFCF1B86B010EB76F0301B70509
:1018100043E1B951100DF3CFE9FFF4CFEAFF070E12
:10182000E926030EEA22040EE926000EEA22EECF94
:1018300010F0EFCF11F00401F351126E136A125041
:1018400010182AE11350111827E10301B951100DA6
:10185000F3CFE9FFF4CFEAFF070EE926030EEA22F1
:10186000060EE926000EEA22EECF14F0EFCF15F0B7
:101870000401F451166E176A165014180DE1175032
:1018800015180AE1C4C3F9F1C2C3FAF1C8C3FBF1E8
:10189000C6C3FCF10301B76B1200D9CFE6FFE1CF5D
:1018A000D9FFE652DF6ADF6A03010151DF5C01E321
:1018B000B6D1DF28106E116A126A136A10AE03D017
:1018C00011681268136810C0E6FF11C0E6FF12C06D
:1018D000E6FF13C0E6FFF8EC3CF0E552E552E552B6
:1018E000E552370EE66E720EE66E2DEC3CF0E552D8
:1018F000E552DFCF10F0116A126A136A10AE03D0FE
:1019000011681268136810C0E6FF11C0E6FF12C02C
:10191000E6FF13C0E6FFF8EC3CF0E552E552E55275
:10192000E552320EE66E720EE66E2DEC3CF0E5529C
:10193000E552DFCFE9FFEA6AE9BEEA68040ED89013
:10194000E936EA36E806FBE1070EE926030EEA224D
:10195000EECF10F0EFCF11F0126A136A10C0E6FF5D
:1019600011C0E6FF12C0E6FF13C0E6FFF8EC3CF042
:10197000E552E552E552E552D00EE66E720EE66E85
:101980002DEC3CF0E552E552DFCFE9FFEA6AE9BE13
:10199000EA68040ED890E936EA36E806FBE1070E5D
:1019A000E926030EEA22020EE926000EEA22EECF15
:1019B00010F0EFCF11F0126A136A10C0E6FF11C0E9
:1019C000E6FF12C0E6FF13C0E6FFF8EC3CF0E5527C
:1019D000E552E552E552C80EE66E720EE66E2DEC4B
:1019E0003CF0E552E552DFCFE9FFEA6AE9BEEA687A
:1019F000040ED890E936EA36E806FBE1070EE92640
:101A0000030EEA22040EE926000EEA22EECF10F0C1
:101A1000EFCF11F0126A136A10C0E6FF11C0E6FFA3
:101A200012C0E6FF13C0E6FFF8EC3CF0E552E552C9
:101A3000E552E552D00EE66E720EE66E2DEC3CF0ED
:101A4000E552E552DFCFE9FFEA6AE9BEEA68040E33
:101A5000D890E936EA36E806FBE1070EE926030EE0
:101A6000EA22060EE926000EEA22EECF10F0EFCFB2
:101A700011F0126A136A10C0E6FF11C0E6FF12C02F
:101A8000E6FF13C0E6FFF8EC3CF0E552E552E55204
:101A9000E5521C0EE66E720EE66E2DEC3CF0E55241
:101AA000E552DFCFE9FFEA6AE9BEEA68040ED890A2
:101AB000E936EA36E806FBE1070EE926030EEA22DC
:101AC0000A0EE926000EEA22EECF10F0EFCF11F059
:101AD000126A136A10C0E6FF11C0E6FF12C0E6FFEB
:101AE00013C0E6FFF8EC3CF0E552E552E552E55252
:101AF000100EE66E720EE66E2DEC3CF0E552E552ED
:101B0000DFCFE9FFEA6AE9BEEA68040ED890E93659
:101B1000EA36E806FBE1070EE926030EEA22080E84
:101B2000E926000EEA22EECF10F0EFCF11F0126A94
:101B3000136A10C0E6FF11C0E6FF12C0E6FF13C033
:101B4000E6FFF8EC3CF0E552E552E552E552FA0EBC
:101B5000E66E710EE66E2DEC3CF0E552E552DFCFFD
:101B6000E9FFEA6AE9BEEA68040ED890E936EA3687
:101B7000E806FBE1070EE926030EEA220E0EE9262F
:101B8000000EEA22EECF10F0EFCF11F0126A136AC6
:101B900010C0E6FF11C0E6FF12C0E6FF13C0E6FF6B
:101BA000F8EC3CF0E552E552E552E552100EE66ED7
:101BB000720EE66E2DEC3CF0E552E552DFCFE9FF08
:101BC000EA6AE9BEEA68040ED890E936EA36E80621
:101BD000FBE1070EE926030EEA220C0EE926000EB1
:101BE000EA22EECF10F0EFCF11F0126A136A10C0A4
:101BF000E6FF11C0E6FF12C0E6FF13C0E6FFF8ECF7
:101C00003CF0E552E552E552E552F70EE66E710EF4
:101C1000E66E2DEC3CF0E552E552DF2A45D6E55262
:101C2000E552E7CFD9FF1200D9CFE6FFE1CFD9FFC8
:101C3000CF0EE66E710EE66E2DEC3CF0E552E552ED
:101C4000FE0EDB5008E1CB0EE66E710EE66E2DEC5B
:101C50003CF0E552E552FE0EDB0408E1C60EE66EEE
:101C6000710EE66E2DEC3CF0E552E552FE0EDB50B7
:101C700004081CE1BF0EE66E710EE66E2DEC3CF022
:101C8000E552E552B00EE66E710EE66E2DEC3CF0BC
:101C9000E552E552FD0EDBCF10F0116A126A136AAD
:101CA00010AE9FD31168126813689BD3B00EE66E16
:101CB000710EE66E2DEC3CF0E552E552FD0EDBCFE9
:101CC00010F0116A126A136A10AE03D0116812681C
:101CD000136810C0E6FF11C0E6FF12C0E6FF13C094
:101CE000E6FFF8EC3CF0E552E552E552E552AD0E68
:101CF000E66E710EE66E2DEC3CF0E552E552FD0EFF
:101D0000DBCFE9FFEA6AE9BEEA68040ED890E9365B
:101D1000EA36E806FBE1070EE926030EEA22EECFDB
:101D200010F0EFCF11F00A0E0D6E0E6A10C008F021
:101D300011C009F0F8EC46F008C010F009C011F02D
:101D4000126A136A08C0E6FF09C0E6FF12C0E6FF88
:101D500013C0E6FFF8EC3CF0E552E552E552E552DF
:101D6000FD0EDBCFE9FFEA6AE9BEEA68040ED8900F
:101D7000E936EA36E806FBE1070EE926030EEA2219
:101D8000EECF10F0EFCF11F00A0E0D6E0E6A10C0FC
:101D900008F011C009F0F8EC46F004C010F005C0DE
:101DA00011F0126A136A04C0E6FF05C0E6FF12C014
:101DB000E6FF13C0E6FFF8EC3CF0E552E552E552D1
:101DC000E552D00EE66E720EE66E2DEC3CF0E5525A
:101DD000E552FD0EDBCFE9FFEA6AE9BEEA68040ED0
:101DE000D890E936EA36E806FBE1070EE926030E4D
:101DF000EA22020EE926000EEA22EECF10F0EFCF23
:101E000011F00A0E0D6E0E6A10C008F011C009F034
:101E1000F8EC46F008C010F009C011F0126A136A1D
:101E200008C0E6FF09C0E6FF12C0E6FF13C0E6FFE8
:101E3000F8EC3CF0E552E552E552E552FD0EDBCF01
:101E4000E9FFEA6AE9BEEA68040ED890E936EA36A4
:101E5000E806FBE1070EE926030EEA22020EE92658
:101E6000000EEA22EECF10F0EFCF11F00A0E0D6E49
:101E70000E6A10C008F011C009F0F8EC46F004C07A
:101E800010F005C011F0126A136A04C0E6FF05C025
:101E9000E6FF12C0E6FF13C0E6FFF8EC3CF0E552A7
:101EA000E552E552E552A90EE66E710EE66E2DEC96
:101EB0003CF0E552E552FD0EDBCFE9FFEA6AE9BEF0
:101EC000EA68040ED890E936EA36E806FBE1070E28
:101ED000E926030EEA22040EE926000EEA22EECFDE
:101EE00010F0EFCF11F00A0E0D6E0E6A10C008F060
:101EF00011C009F0F8EC46F008C010F009C011F06C
:101F0000126A136A08C0E6FF09C0E6FF12C0E6FFC6
:101F100013C0E6FFF8EC3CF0E552E552E552E5521D
:101F2000FD0EDBCFE9FFEA6AE9BEEA68040ED8904D
:101F3000E936EA36E806FBE1070EE926030EEA2257
:101F4000040EE926000EEA22EECF10F0EFCF11F0DA
:101F50000A0E0D6E0E6A10C008F011C009F0F8EC00
:101F600046F004C010F005C011F0126A136A04C0F4
:101F7000E6FF05C0E6FF12C0E6FF13C0E6FFF8EC7F
:101F80003CF0E552E552E552E552D00EE66E720E97
:101F9000E66E2DEC3CF0E552E552FD0EDBCFE9FF9D
:101FA000EA6AE9BEEA68040ED890E936EA36E8063D
:101FB000FBE1070EE926030EEA22060EE926000ED3
:101FC000EA22EECF10F0EFCF11F00A0E0D6E0E6A7E
:101FD00010C008F011C009F0F8EC46F008C010F08D
:101FE00009C011F0126A136A08C0E6FF09C0E6FFD3
:101FF00012C0E6FF13C0E6FFF8EC3CF0E552E552F4
:10200000E552E552FD0EDBCFE9FFEA6AE9BEEA6878
:10201000040ED890E936EA36E806FBE1070EE92619
:10202000030EEA22060EE926000EEA22EECF10F099
:10203000EFCF11F00A0E0D6E0E6A10C008F011C03D
:1020400009F0F8EC46F004C010F005C011F0126A77
:10205000136A04C0E6FF05C0E6FF12C0E6FF13C026
:10206000E6FFF8EC3CF0E552E552E552E552A60EEB
:10207000E66E710EE66E2DEC3CF0E552E552FD0E7B
:10208000DBCFE9FFEA6AE9BEEA68040ED890E936D8
:10209000EA36E806FBE1070EE926030EEA220A0EFD
:1020A000E926000EEA22EECF10F0EFCF11F00A0E73
:1020B0000D6E0E6A10C008F011C009F0F8EC46F081
:1020C00008C010F009C011F0126A136A08C0E6FFD8
:1020D00009C0E6FF12C0E6FF13C0E6FFF8EC3CF0D3
:1020E000E552E552E552E552FD0EDBCFE9FFEA6A23
:1020F000E9BEEA68040ED890E936EA36E806FBE164
:10210000070EE926030EEA220A0EE926000EEA224D
:10211000EECF10F0EFCF11F00A0E0D6E0E6A10C068
:1021200008F011C009F0F8EC46F004C010F005C04A
:1021300011F0126A136A04C0E6FF05C0E6FF12C080
:10214000E6FF13C0E6FFF8EC3CF0E552E552E5523D
:10215000E552A40EE66E710EE66E2DEC3CF0E552F3
:10216000E552FD0EDBCFE9FFEA6AE9BEEA68040E3C
:10217000D890E936EA36E806FBE1070EE926030EB9
:10218000EA22080EE926000EEA22EECF10F0EFCF89
:1021900011F00A0E0D6E0E6A10C008F011C009F0A1
:1021A000F8EC46F008C010F009C011F0126A136A8A
:1021B00008C0E6FF09C0E6FF12C0E6FF13C0E6FF55
:1021C000F8EC3CF0E552E552E552E552FD0EDBCF6E
:1021D000E9FFEA6AE9BEEA68040ED890E936EA3611
:1021E000E806FBE1070EE926030EEA22080EE926BF
:1021F000000EEA22EECF10F0EFCF11F00A0E0D6EB6
:102200000E6A10C008F011C009F0F8EC46F004C0E6
:1022100010F005C011F0126A136A04C0E6FF05C091
:10222000E6FF12C0E6FF13C0E6FFF8EC3CF0E55213
:10223000E552E552E552A40EE66E710EE66E2DEC07
:102240003CF0E552E552FD0EDBCFE9FFEA6AE9BE5C
:10225000EA68040ED890E936EA36E806FBE1070E94
:10226000E926030EEA220E0EE926000EEA22EECF40
:1022700010F0EFCF11F00A0E0D6E0E6A10C008F0CC
:1022800011C009F0F8EC46F008C010F009C011F0D8
:10229000126A136A08C0E6FF09C0E6FF12C0E6FF33
:1022A00013C0E6FFF8EC3CF0E552E552E552E5528A
:1022B000FD0EDBCFE9FFEA6AE9BEEA68040ED890BA
:1022C000E936EA36E806FBE1070EE926030EEA22C4
:1022D0000E0EE926000EEA22EECF10F0EFCF11F03D
:1022E0000A0E0D6E0E6A10C008F011C009F0F8EC6D
:1022F00046F004C010F005C011F0126A136A04C061
:10230000E6FF05C0E6FF12C0E6FF13C0E6FFF8ECEB
:102310003CF0E552E552E552E552A40EE66E710E30
:10232000E66E2DEC3CF0E552E552FD0EDBCFE9FF09
:10233000EA6AE9BEEA68040ED890E936EA36E806A9
:10234000FBE1070EE926030EEA220C0EE926000E39
:10235000EA22EECF10F0EFCF11F00A0E0D6E0E6AEA
:1023600010C008F011C009F0F8EC46F008C010F0F9
:1023700009C011F0126A136A08C0E6FF09C0E6FF3F
:1023800012C0E6FF13C0E6FFF8EC3CF0E552E55260
:10239000E552E552FD0EDBCFE9FFEA6AE9BEEA68E5
:1023A000040ED890E936EA36E806FBE1070EE92686
:1023B000030EEA220C0EE926000EEA22EECF10F000
:1023C000EFCF11F00A0E0D6E0E6A10C008F011C0AA
:1023D00009F0F8EC46F004C010F005C011F0126AE4
:1023E000136A10C0E6FF11C0E6FF12C0E6FF13C07B
:1023F000E6FFF8EC3CF0E552E552E552E552A10E5D
:10240000E66E710EE66E2DEC3CF0E552E5529F0E45
:10241000E66E710EE66E2DEC3CF0E552E552E552AB
:06242000E7CFD9FF120016
:0A242600D9CFE6FFE1CFD9FFE6525F
:10243000DF6ADF6ADFCF10F0FA0EDB50E76E1018AC
:10244000E8AE02D0E73402D0E750105C23E2DFCFE1
:1024500011F0126A11BE1268FD0EDB501124E96EF4
:10246000FE0EDB501220EA6EEFCF10F0DFCF13F03C
:10247000146A13BE1468FB0EDB501324E96EFC0EC5
:10248000DB501420EA6EEF50105C02E1DF2AD2D755
:10249000010E01D0000EE552E552E7CFD9FF120040
:1024A00079D8E80EE66E030EE66E30D8E552E552B6
:1024B0000401D45107E10401D205FAE1D26BA5EC85
:1024C00041F0F6D7D46BDEEC32F001010829106E32
:1024D0000A0E116E0E6E10C009F02CEC47F005C00C
:1024E00008F13CEC18F00101135102E0000E01D09C
:1024F000010EE66E0AEC43F0E55234EC0AF075EC9E
:102500000BF012EC19F022EC29F0D2D7D9CFE6FF6C
:10251000E1CFD9FF040EE126DE6ADD6ADECF10F0DE
:10252000DDCF11F0FD0EDBCF12F0FE0EDBCF13F08E
:1025300011501318E8AE02D0133404D01250105CBE
:10254000135011581DE2020EDB6A030EDB6A020E05
:10255000DBCF10F0030EDBCF11F0D890115004E662
:10256000EE0E105C000E115806E2020EDB2A030E7E
:10257000EEE3DB2AECD7DF2A010ED0E3DB2ACED74D
:10258000040EE15C02E2E16AE552E16EE552E7CF5A
:10259000D9FF120063EC42F05CEC22F02BEC32F03D
:1025A000C9EC44F005EC44F0ACEC3BF006EC24F054
:1025B000FDEC25F0F40EE66E010EE66EA7DFE552A7
:1025C000E552570EE66E120EE66E67EC3EF0E552EF
:1025D000E552AE0EE66E240EE66E09EC3FF0E552D3
:1025E000E552660EE66EB70EE66ECAEC3FF0E552B7
:1025F000E5520A0EE66EE66AA5EC40F0E552E552B9
:102600000F0EE66EE66AB7EC40F0E552E552640E56
:10261000E66EE66AD6EC40F0E552E552F5EC40F0A5
:10262000969084901200D9CFE6FFE1CFD9FFFD0E3E
:10263000DBCFE9FFFE0EDBCFEAFFD890E936EA36C2
:10264000800EE926000EEA22010EEE1801E1ED509F
:1026500028E0FD0EDBCFE9FFFE0EDBCFEAFFD890CE
:10266000E936EA36800EE926000EEA220A0ED88004
:10267000EE54000EED5417E2FD0EDBCFE9FFFE0E27
:10268000DBCFEAFFD890E936EA36800EE926000E65
:10269000EA22EECF10F0116A010E10161050111040
:1026A00002E1010E01D0000EE552E7CFD9FF120082
:1026B000050EE66EC2EC28F0E55201010B6B090530
:1026C0000201406F0101096BE66ADEEC29F0E55278
:1026D0001200D9CFE6FFE1CFD9FFFB0EDBCF10F020
:1026E000FC0EDBCF11F00A0E0D6E0E6A10C008F062
:1026F00011C009F0DDEC45F008C010F009C011F080
:10270000126A136A11AE02D01268136810C0E6FF95
:1027100011C0E6FF12C0E6FF13C0E6FFFD0EDBCFDF
:10272000E6FFFE0EDBCFE6FF71EC27F0146E060E1F
:10273000E15E1450FB0EDBCF10F0FC0EDBCF11F08E
:102740000A0E0D6E0E6A10C008F011C009F0DDEC23
:1027500045F004C010F005C011F0126A136A11AE02
:1027600002D01268136810C0E6FF11C0E6FF12C065
:10277000E6FF13C0E6FFFD0EDB28E66EFE0EDBCFA4
:10278000E6FF71EC27F0146E060EE15E1450E55280
:10279000E7CFD9FF1200D9CFE6FFE1CFD9FFE6524C
:1027A000DF6A010E01010D250D6F000E0E210E6F67
:1027B000140E0D6E0E6A0DC108F00EC109F0F8EC92
:1027C00046F004C00DF105C00EF1010EE66EDEEC20
:1027D00029F0E55201010C51060A01E1CFD1030AAB
:1027E00001E176D1010A01E120D1070A01E1CCD053
:1027F000010A63E0FD0A01E0C6D14A0EE66E710EE1
:10280000E66EE66AE66A98EC28F0E552E552E55293
:10281000E552350EE66E710EE66EE66A010EE66E64
:1028200098EC28F0E552E552E552E5520101FB51E2
:10283000E66EE66A050EE66E010EE66E4ADFE552CA
:10284000E552E552E5520101FC51E66EE66A0B0ED7
:10285000E66E010EE66E3DDFE552E552E552E552C9
:102860000101F951E66EE66A050EE66EE66A31DFB1
:10287000E552E552E552E5520101FA51E66EE66A8B
:102880000B0EE66EE66A25DFE552E552E552E552AB
:10289000060EE66E42EC36F0E552DF6EDF0403E131
:1028A0000101020E0C6F030EDF5C01E06DD100DF51
:1028B000E66ADEEC29F0E55267D10A0ED8800D55A4
:1028C000000E0E5511E200018A518B110DE1885165
:1028D00089110AE1320EE66E710EE66E050EE66EA5
:1028E000E66A98EC28F008D00101F951E66EE66A34
:1028F000050EE66EE66AEDDEE552E552E552E5527A
:10290000050EE66EFDEC35F0E55200090DE0010123
:10291000F92BF951E66EE66A050EE66EE66AD9DE37
:10292000E552E552E552E552040EE66EFDEC35F057
:10293000E55200090DE00101F907F951E66EE66A7A
:10294000050EE66EE66AC5DEE552E552E552E55251
:10295000060EE66E42EC36F0E552DF6EDF040FE164
:102960000101030E0C6F0101F951E66EE66A050ED6
:10297000E66EE66AAEDEE552E552E552E552030E3A
:10298000DF5C01E001D1F6D00A0ED8800D55000EB3
:102990000E5511E200018A518B110DE18851891108
:1029A0000AE1320EE66E710EE66E0B0EE66EE66A18
:1029B00098EC28F008D00101FA51E66EE66A0B0E99
:1029C000E66EE66A86DEE552E552E552E552050E10
:1029D000E66EFDEC35F0E552000902E00101FA2B4C
:1029E000040EE66EFDEC35F0E552000902E001014F
:1029F000FA07060EE66E42EC36F0E552DF6EDF04B3
:102A00000FE10101040E0C6F0101FA51E66EE66A56
:102A10000B0EE66EE66A5DDEE552E552E552E552E2
:102A2000030EDF5C01E0B0D0A5D00A0ED8800D55B2
:102A3000000E0E5512E200018A518B110EE18851F1
:102A400089110BE1320EE66E710EE66E050EE66E32
:102A5000010EE66E98EC28F009D00101FB51E66EFC
:102A6000E66A050EE66E010EE66E33DEE552E552CD
:102A7000E552E552050EE66EFDEC35F0E552000933
:102A800002E00101FB2B040EE66EFDEC35F0E55291
:102A9000000902E00101FB07060EE66E42EC36F08B
:102AA000E552DF6EDF0410E10101FB51E66EE66ADC
:102AB000050EE66E010EE66E0CDEE552E552E552BD
:102AC000E5520101050E0C6F030EDF5C5DE152D093
:102AD0000A0ED8800D55000E0E5512E200018A51E3
:102AE0008B110EE1885189110BE1320EE66E710EE9
:102AF000E66E0B0EE66E010EE66E98EC28F009D03D
:102B00000101FC51E66EE66A0B0EE66E010EE66E02
:102B1000E0DDE552E552E552E552050EE66EFDECCC
:102B200035F0E552000902E00101FC2B040EE66ECF
:102B3000FDEC35F0E552000902E00101FC07060E4C
:102B4000E66E42EC36F0E552DF6EDF0410E1010183
:102B5000FC51E66EE66A0B0EE66E010EE66EB9DD1E
:102B6000E552E552E552E5520101060E0C6F030EE7
:102B7000DF5C0AE10101060E0C6F06D04DEC1CF083
:102B800001010C6901D00C69E552E552E7CFD9FF8C
:102B900012000101085103E1115101E0110711C1B7
:102BA00010F0116A126A136A11C1E6FF11C0E6FF44
:102BB00012C0E6FF13C0E6FF0E0EE66EE66A71EC89
:102BC00027F0146E060EE15E1450010EE66EDEEC88
:102BD00029F0E55201010F51030A01E14BD1070A27
:102BE00001E1F6D0010A01E1A7D0070A01E183D093
:102BF000030A65E0010A01E01200220EE66E710E82
:102C0000E66EE66AE66A98EC28F0E552E552E5528F
:102C1000E55201011051050A19E0010A2EE1110ED9
:102C2000E66E710EE66EE66A010EE66E98EC28F02E
:102C3000E552E552E552E552040EE66EFDEC35F044
:102C4000E55200091AE00101050E16D0000EE66EED
:102C5000710EE66EE66A010EE66E98EC28F0E5521B
:102C6000E552E552E552040EE66EFDEC35F0E55214
:102C7000000903E00101040E106F050EE66EFDEC85
:102C800035F0E552000903E10101ED050FE1010115
:102C9000ED5108E110C1E6FF010EE66E2AEC21F0CD
:102CA000E552E5520101ED6B010E0F6F060EE66E67
:102CB000FDEC35F0E552000901E103D100D1F00E41
:102CC000E66E700EE66EE66A010EE66E98EC28F08F
:102CD000E552E552E552E552BDEC42F0D9EC42F046
:102CE000E7EC42F003EC43F00101010E136F000129
:102CF000E46B0101BAD0F00EE66E700EE66EE66A85
:102D0000010EE66E98EC28F0E552E552E552E552E8
:102D1000C4EC42F0EEEC42F00101115101E0D1D0DF
:102D2000020E125D02E1030EA3D0CBEC42F0F5ECF3
:102D300042F010C10FF11200DC0EE66E700EE66E6E
:102D4000E66A010EE66E98EC28F0E552E552E5528F
:102D5000E5520101125108E1CBEC42F0D2EC42F015
:102D600003EC43F0E0EC42F0040EE66EFDEC35F0CF
:102D7000E552000903E10101ED0515E10101ED5105
:102D800008E1040EE66E020EE66E2AEC21F0E55232
:102D9000E5520101ED6B030E116F010E126FE7ECAE
:102DA00042F0EEEC42F00101120505E1115103E1A0
:102DB000126B040E0F6F050EE66EFDEC35F0E5525A
:102DC000000901E17ED0D9EC42F0E7EC42F04AD0B4
:102DD000C60EE66E700EE66EE66A010EE66E98ECC2
:102DE00028F0E552E552E552E5520101125108E1A1
:102DF000D9EC42F0B6EC42F0F5EC42F0FCEC42F0DB
:102E0000040EE66EFDEC35F0E552000903E1010128
:102E1000ED0515E10101ED5108E1050EE66E020E2A
:102E2000E66E2AEC21F0E552E5520101ED6B030E4E
:102E3000116F010E126FBDEC42F0C4EC42F00101C3
:102E4000120505E1115103E1126B050E0F6F050E1E
:102E5000E66EFDEC35F0E552000933E003EC43F09B
:102E6000BDEC42F00101020E126F030E116F020E53
:102E70000F6F1200AF0EE66E700EE66EE66A010E80
:102E8000E66E98EC28F0E552E552E552E552010174
:102E9000126B116B136B0001010EE46F0101F869F5
:102EA00001010F6BED5107E110C1E6FFE66A2AEC64
:102EB00021F0E552E5520101ED5103E0ED6B58EFD1
:102EC00013F012000101085103E1115101E0110753
:102ED0009B0EE66E700EE66EE66AE66A98EC28F0E7
:102EE000E552E552E552E552870EE66E700EE66E4B
:102EF000E66A010EE66E98EC28F0E552E552E552DE
:102F0000E552010EE66EDEEC29F0E552040E0101F9
:102F1000151901E1165101E17FD0010E151901E1EA
:102F2000165142E0155101E1165101E012007E0EEA
:102F3000E66E700EE66E0B0EE66EE66A98EC28F012
:102F4000E552E552E552E552040EE66EFDEC35F031
:102F5000E552000903E10101ED051DE10101ED511B
:102F600005E1010EE66EF4EC20F0E5520101ED6B97
:102F7000BDEC42F0D9EC42F0CBEC42F0E7EC42F091
:102F800003EC43F0F5EC42F00101010E136F000178
:102F9000E46B01013ED0060EE66EFDEC35F0E55225
:102FA000000969E058EF13F0760EE66E700EE66EDB
:102FB0000B0EE66EE66A98EC28F0E552E552E55213
:102FC000E552050E0101085D05E2CBEC42F0F5EC9F
:102FD00042F004D0C4EC42F0EEEC42F0040EE66E97
:102FE000FDEC35F0E552000903E10101ED0543E197
:102FF0000101ED5104E1E66AF4EC20F0E552C4EC85
:1030000042F0EEEC42F00101030E116F010E126F5F
:10301000040E156F166B120011C110F0116A126ABE
:10302000136A11C1E6FF11C0E6FF12C0E6FF13C02C
:10303000E6FF0B0EE66EE66A71EC27F0146E060EE4
:10304000E15E14500101120516E1115114E1126BF9
:10305000CBEC42F0F5EC42F00101136B0001010EE4
:10306000E46F0101F8690101156B166BED0503E1D1
:10307000ED6B58EC13F01200D9CFE6FFE1CFD9FF8A
:10308000E652DF6A01010951050A01E196D0010A01
:1030900001E18CD0070A01E182D0010A69E0030A4C
:1030A0005FE0010A01E0B9D0050EE66EC2EC28F03F
:1030B000E552660EE66E700EE66EE66AE66A98EC1B
:1030C00028F0E552E552E552E552560EE66E700ED6
:1030D000E66EE66A010EE66E98EC28F0E552E552DF
:1030E000E552E552460EE66E700EE66EE66A020E98
:1030F000E66E98EC28F0E552E552E552E552360EC0
:10310000E66E700EE66EE66A030EE66E98EC28F048
:10311000E552E552E552E552260EE66E700EE66E79
:10312000E66A040EE66E98EC28F0E552E552E552A8
:10313000E552060EE66E42EC36F0E55201086DE10E
:10314000020140290101096F0201406BFDEC25F0ED
:103150000A0EE66EE66A86EC12F0E552E5525DD0A4
:10316000020EE66EC2EC28F0E552CBEC13F055D01F
:10317000D9CFE6FFDACFE6FF01EC04F0E552E552E5
:10318000DF044BE1050EE66EC2EC28F0E5520101CA
:103190000B6B09050201406F0101096B3ED0020E65
:1031A000E66EC2EC28F0E552F4DC37D0020EE66E93
:1031B000C2EC28F0E55286DE30D0020EE66EC2EC9C
:1031C00028F0E552010EE66EDEEC29F0E552100E15
:1031D000E66E700EE66EE66AE66A98EC28F0E55256
:1031E000E552E552E552F90EE66E6F0EE66EE66ABE
:1031F000010EE66E98EC28F0E552E552E552E552F4
:1032000036EC2BF0060EE66EFDEC35F0E5520009CB
:1032100004E00401006B58EC13F0E552E552E7CFEF
:10322000D9FF1200D9CFE6FFE1CFD9FF120EE12678
:10323000DE6ADD6AD950020FE96EDACFEAFFEE6A84
:10324000EE6AEE6AEE6AEE6AEE6AEE6AEE6AEE6ABE
:10325000EE6AEE6AEE6AEE6AEE6A100EDB6A110E34
:10326000DB6A450EE66E010EE66E270EE66E010E77
:10327000E66E13EC3EF0E552E552E552E5520101EF
:10328000466FE80401E0FFD2466BEE51010A01E10E
:1032900014D2010A01E0F7D20C0EE66E470EE66E7C
:1032A000010EE66E270EE66E010EE66EF9EC2AF0D0
:1032B000106E050EE15E1050000940E1F70EE66E5B
:1032C0006F0EE66E2DEC3CF0E552E552F40EE66E24
:1032D0006F0EE66E2DEC3CF0E552E552F70EE66E11
:1032E0006F0EE66E2DEC3CF0E552E552F20EE66E06
:1032F0006F0EE66E2DEC3CF0E552E552300E01010A
:10330000355D106E300E345D0A0DF350102401014E
:10331000F96F300E0101375D0101FA6F300E0101C6
:103320003A5D106E300E395D0A0DF3501024010124
:10333000FB6F300E01013C5D0101FC6F0C0EE66E6F
:10334000610EE66E010EE66E270EE66E010EE66E6B
:10335000F9EC2AF0106E050EE15E1050000917E13D
:10336000EC0EE66E6F0EE66E2DEC3CF0E552E5528B
:103370000101010EED6F030E096F720E355D02E162
:10338000050E106F670E355D02E1040E106F0C0E16
:10339000E66E540EE66E010EE66E270EE66E010E28
:1033A000E66EF9EC2AF0106E050EE15E1050000991
:1033B00017E1EC0EE66E6F0EE66E2DEC3CF0E5527A
:1033C000E5520101010EED6F030E096F720E335DC0
:1033D00002E1050E106F670E335D02E1040E106FFF
:1033E0000D0EE66E710EE66E010EE66E270EE66EAF
:1033F000010EE66EF9EC2AF0106E050EE15E10503B
:1034000000091AE1EC0EE66E6F0EE66E2DEC3CF054
:10341000E552E5520101010EED6FD9EC42F0E7EC07
:1034200042F003EC43F0BDEC42F00101020E126FDA
:10343000030E116F020E0F6F0C0EE66EAB0EE66EF2
:10344000010EE66E270EE66E010EE66EF9EC2AF02E
:10345000106E050EE15E105000090DE1EC0EE66EF7
:103460006F0EE66E2DEC3CF0E552E5520101040EC4
:10347000096F010EED6F0B0EE66EBB0EE66E010ED0
:10348000E66E270EE66E010EE66EF9EC2AF0106E7F
:10349000050EE15E105000090BE1EC0EE66E6F0EBA
:1034A000E66E2DEC3CF0E552E5520101010EED6FA8
:1034B000090EE66E810EE66E010EE66E270EE66ED2
:1034C000010EE66EF9EC2AF0106E050EE15E10506A
:1034D00000090DE1E50EE66E6F0EE66E2DEC3CF098
:1034E000E552E5520101020EEF6F010E1DD00A0EEA
:1034F000E66E8E0EE66E010EE66E270EE66E010E8D
:10350000E66EF9EC2AF0106E050EE15E105000092F
:103510000DE1E50EE66E6F0EE66E2DEC3CF0E55229
:10352000E5520101010EEF6FEE6FADD10B0EE66EAD
:103530009B0EE66E010EE66E270EE66E010EE66E3F
:10354000F9EC2AF0106E050EE15E1050000914E14E
:10355000EC0EE66E6F0EE66E2DEC3CF0E552E55299
:10356000300E0101335DE76E110EE7CFDBFFDBCFDD
:10357000E6FF8FEC01F0E552080EE66ECB0EE66E2C
:10358000010EE66E270EE66E010EE66EF9EC2AF0ED
:10359000106E050EE15E1050000901E074D1100EAE
:1035A000DB6ADBCF10F0080EE76E1018E8AE02D031
:1035B000E73402D0E750105C1DE2100EDB50080F1C
:1035C000E96EEA6AE9BEEA68270EE926010EEA22F8
:1035D000EF50E66E100EDBCFE9FFEA6AE9BEEA685B
:1035E000270EE926010EEA22E552E750EF6E100E93
:1035F000DB2AD7D7040EE66ED40EE66E010EE66E19
:10360000270EE66E010EE66EF9EC2AF0106E050E3E
:10361000E15E1050000908E1EC0EE66E6F0EE66EFA
:103620002DEC3CF0E552E552070EE66EE50EE66E37
:10363000010EE66E270EE66E010EE66EF9EC2AF03C
:10364000106E050EE15E1050000905E109C1E6FFAC
:10365000A6EC20F0E552070EE66ED90EE66E010EDE
:10366000E66E270EE66E010EE66EF9EC2AF0106E9D
:10367000050EE15E1050000901E10FD9040EE66E5F
:10368000E10EE66E010EE66E270EE66E010EE66EA8
:10369000F9EC2AF0106E050EE15E1050000901E011
:1036A000F2D0300E0101335DE76E110EE7CFDBFF84
:1036B000DBCFE6FF6FD9E552E6D0300E2B5D0A0D69
:1036C000F3502C25D00FDE6EDD6A300E2E5D0A0D14
:1036D000F3502F25D00FE66ED950020FE96EDACFE6
:1036E000EAFFE552E750EE6EED6A300E335D0A0DEB
:1036F000F3503425D00FE66ED950040FE96EDACFBF
:10370000EAFFE552E750EE6EED6A300E365D0A0DC7
:10371000F3503725D00FE66ED950060FE96EDACF99
:10372000EAFFE552E750EE6EED6A300E3A5D0A0DA3
:10373000F3503B25D00FE66ED9500A0FE96EDACF71
:10374000EAFFE552E750EE6EED6A300E3D5DE66E43
:10375000D950080FE96EDACFEAFFE552E750EE6E76
:10376000ED6A300E3F5D0A0DF3504025D00FE66E36
:10377000D9500E0FE96EDACFEAFFE552E750EE6E50
:10378000ED6A300E425DE66ED9500C0FE96EDACF6D
:10379000EAFFE552E750EE6EED6A020EEF5D33E1AF
:1037A000EF6BD9CFE9FFDACFEAFFEECFE6FFEECF3E
:1037B000E6FFEECFE6FFEECFE6FFEECFE6FFEECF81
:1037C000E6FFEECFE6FFEECFE6FFEECFE6FFEECF71
:1037D000E6FFEECFE6FFEECFE6FFEECFE6FFEECF61
:1037E000E6FFEECFE6FFEECFE6FF82EC02F0106ED2
:1037F000100EE15E1050EC0EE66E6F0EE66E2DECD4
:103800003CF0E552E5520101EF053BE1EF6B300E74
:10381000285DE76E110EE7CFDBFFDBCFE6FFD9CFE8
:10382000E9FFDACFEAFFEECFE6FFEECFE6FFEECF1D
:10383000E6FFEECFE6FFEECFE6FFEECFE6FFEECF00
:10384000E6FFEECFE6FFEECFE6FFEECFE6FFEECFF0
:10385000E6FFEECFE6FFEECFE6FFEECFE6FFEECFE0
:10386000E6FFEECFE6FF2AEC03F0106E110EE15EEC
:103870001050EC0EE66E6F0EE66E2DEC3CF0E5524D
:10388000E5520101EE6B120EE15C02E2E16AE552E3
:10389000E16EE552E7CFD9FF1200A10EE66E6F0E82
:1038A000E66E2DEC3CF0E552E552F9C110F0116ADC
:1038B000126A136AF9C1E6FF11C0E6FF12C0E6FF03
:1038C00013C0E6FFF8EC3CF0E552E552E552E55254
:1038D0009F0EE66E6F0EE66E2DEC3CF0E552E55263
:1038E000FAC110F0116A126A136AFAC1E6FF11C038
:1038F000E6FF12C0E6FF13C0E6FFF8EC3CF0E5522D
:10390000E552E552E5529F0EE66E6F0EE66E2DEC27
:103910003CF0E552E552FBC110F0116A126A136ADD
:10392000FBC1E6FF11C0E6FF12C0E6FF13C0E6FFD1
:10393000F8EC3CF0E552E552E552E5529F0EE66E9A
:103940006F0EE66E2DEC3CF0E552E552FCC110F036
:10395000116A126A136AFCC1E6FF11C0E6FF12C0C9
:10396000E6FF13C0E6FFF8EC3CF0E552E552E55205
:10397000E5529C0EE66E6F0EE66E2DEC3CF0E552C5
:10398000E552F20EE66E6F0EE66E2DEC3CF0E5525F
:10399000E5521200D9CFE6FFE1CFD9FF830EE66EE4
:1039A0006F0EE66E2DEC3CF0E552E552FE0EDB2884
:1039B000106E116A126A136A10AE03D01168126891
:1039C000136810C0E6FF11C0E6FF12C0E6FF13C087
:1039D000E6FFF8EC3CF0E552E552E552E5525C0EAC
:1039E000E66E6F0EE66E2DEC3CF0E552E55201C33B
:1039F00010F0116A126A136A01C3E6FF11C0E6FFF4
:103A000012C0E6FF13C0E6FFF8EC3CF0E552E552C9
:103A1000E552E552590EE66E6F0EE66E2DEC3CF067
:103A2000E552E552FE0EDBCFE9FFEA6AE9BEEA683D
:103A3000040ED890E936EA36E806FBE1070EE926DF
:103A4000030EEA22EECF10F0EFCF11F00A0E0D6E4A
:103A50000E6A10C008F011C009F0F8EC46F008C07A
:103A600010F009C011F0126A136A08C0E6FF09C01D
:103A7000E6FF12C0E6FF13C0E6FFF8EC3CF0E552AB
:103A8000E552E552E552FE0EDBCFE9FFEA6AE9BEF8
:103A9000EA68040ED890E936EA36E806FBE1070E3C
:103AA000E926030EEA22EECF10F0EFCF11F00A0E56
:103AB0000D6E0E6A10C008F011C009F0F8EC46F067
:103AC00004C010F005C011F0126A136A04C0E6FFCA
:103AD00005C0E6FF12C0E6FF13C0E6FFF8EC3CF0BD
:103AE000E552E552E552E552570EE66E6F0EE66E70
:103AF0002DEC3CF0E552E552FE0EDBCFE9FFEA6A21
:103B0000E9BEEA68040ED890E936EA36E806FBE139
:103B1000070EE926030EEA22020EE926000EEA222B
:103B2000EECF10F0EFCF11F00A0E0D6E0E6A10C03E
:103B300008F011C009F0F8EC46F008C010F009C018
:103B400011F0126A136A08C0E6FF09C0E6FF12C04E
:103B5000E6FF13C0E6FFF8EC3CF0E552E552E55213
:103B6000E552FE0EDBCFE9FFEA6AE9BEEA68040E21
:103B7000D890E936EA36E806FBE1070EE926030E9F
:103B8000EA22020EE926000EEA22EECF10F0EFCF75
:103B900011F00A0E0D6E0E6A10C008F011C009F087
:103BA000F8EC46F004C010F005C011F0126A136A78
:103BB00004C0E6FF05C0E6FF12C0E6FF13C0E6FF43
:103BC000F8EC3CF0E552E552E552E552530EE66E54
:103BD0006F0EE66E2DEC3CF0E552E552FE0EDBCFAB
:103BE000E9FFEA6AE9BEEA68040ED890E936EA36E7
:103BF000E806FBE1070EE926030EEA22040EE92699
:103C0000000EEA22EECF10F0EFCF11F00A0E0D6E8B
:103C10000E6A10C008F011C009F0F8EC46F008C0B8
:103C200010F009C011F0126A136A08C0E6FF09C05B
:103C3000E6FF12C0E6FF13C0E6FFF8EC3CF0E552E9
:103C4000E552E552E552FE0EDBCFE9FFEA6AE9BE36
:103C5000EA68040ED890E936EA36E806FBE1070E7A
:103C6000E926030EEA22040EE926000EEA22EECF30
:103C700010F0EFCF11F00A0E0D6E0E6A10C008F0B2
:103C800011C009F0F8EC46F004C010F005C011F0C6
:103C9000126A136A04C0E6FF05C0E6FF12C0E6FF21
:103CA00013C0E6FFF8EC3CF0E552E552E552E55270
:103CB000570EE66E6F0EE66E2DEC3CF0E552E552C7
:103CC000FE0EDBCFE9FFEA6AE9BEEA68040ED8908F
:103CD000E936EA36E806FBE1070EE926030EEA229A
:103CE000060EE926000EEA22EECF10F0EFCF11F01B
:103CF0000A0E0D6E0E6A10C008F011C009F0F8EC43
:103D000046F008C010F009C011F0126A136A08C02A
:103D1000E6FF09C0E6FF12C0E6FF13C0E6FFF8ECBD
:103D20003CF0E552E552E552E552FE0EDBCFE9FFED
:103D3000EA6AE9BEEA68040ED890E936EA36E8068F
:103D4000FBE1070EE926030EEA22060EE926000E25
:103D5000EA22EECF10F0EFCF11F00A0E0D6E0E6AD0
:103D600010C008F011C009F0F8EC46F004C010F0E3
:103D700005C011F0126A136A04C0E6FF05C0E6FF31
:103D800012C0E6FF13C0E6FFF8EC3CF0E552E55246
:103D9000E552E552500EE66E6F0EE66E2DEC3CF0ED
:103DA000E552E552FE0EDBCFE9FFEA6AE9BEEA68BA
:103DB000040ED890E936EA36E806FBE1070EE9265C
:103DC000030EEA220A0EE926000EEA22EECF10F0D8
:103DD000EFCF11F00A0E0D6E0E6A10C008F011C080
:103DE00009F0F8EC46F008C010F009C011F0126AB2
:103DF000136A08C0E6FF09C0E6FF12C0E6FF13C061
:103E0000E6FFF8EC3CF0E552E552E552E552FE0ED5
:103E1000DBCFE9FFEA6AE9BEEA68040ED890E9362A
:103E2000EA36E806FBE1070EE926030EEA220A0E4F
:103E3000E926000EEA22EECF10F0EFCF11F00A0EC5
:103E40000D6E0E6A10C008F011C009F0F8EC46F0D3
:103E500004C010F005C011F0126A136A04C0E6FF36
:103E600005C0E6FF12C0E6FF13C0E6FFF8EC3CF029
:103E7000E552E552E552E5529F0EE66E6F0EE66E94
:103E80002DEC3CF0E552E552FE0EDBCFE9FFEA6A8D
:103E9000E9BEEA68040ED890E936EA36E806FBE1A6
:103EA000070EE926030EEA22080EE926000EEA2292
:103EB000EECF10F0EFCF11F00A0E0D6E0E6A10C0AB
:103EC00008F011C009F0F8EC46F008C010F009C085
:103ED00011F0126A136A08C0E6FF09C0E6FF12C0BB
:103EE000E6FF13C0E6FFF8EC3CF0E552E552E55280
:103EF000E552FE0EDBCFE9FFEA6AE9BEEA68040E8E
:103F0000D890E936EA36E806FBE1070EE926030E0B
:103F1000EA22080EE926000EEA22EECF10F0EFCFDB
:103F200011F00A0E0D6E0E6A10C008F011C009F0F3
:103F3000F8EC46F004C010F005C011F0126A136AE4
:103F400004C0E6FF05C0E6FF12C0E6FF13C0E6FFAF
:103F5000F8EC3CF0E552E552E552E5529F0EE66E74
:103F60006F0EE66E2DEC3CF0E552E552FE0EDBCF17
:103F7000E9FFEA6AE9BEEA68040ED890E936EA3653
:103F8000E806FBE1070EE926030EEA220E0EE926FB
:103F9000000EEA22EECF10F0EFCF11F00A0E0D6EF8
:103FA0000E6A10C008F011C009F0F8EC46F008C025
:103FB00010F009C011F0126A136A08C0E6FF09C0C8
:103FC000E6FF12C0E6FF13C0E6FFF8EC3CF0E55256
:103FD000E552E552E552FE0EDBCFE9FFEA6AE9BEA3
:103FE000EA68040ED890E936EA36E806FBE1070EE7
:103FF000E926030EEA220E0EE926000EEA22EECF93
:1040000010F0EFCF11F00A0E0D6E0E6A10C008F01E
:1040100011C009F0F8EC46F004C010F005C011F032
:10402000126A136A04C0E6FF05C0E6FF12C0E6FF8D
:1040300013C0E6FFF8EC3CF0E552E552E552E552DC
:104040009F0EE66E6F0EE66E2DEC3CF0E552E552EB
:10405000FE0EDBCFE9FFEA6AE9BEEA68040ED890FB
:10406000E936EA36E806FBE1070EE926030EEA2206
:104070000C0EE926000EEA22EECF10F0EFCF11F081
:104080000A0E0D6E0E6A10C008F011C009F0F8ECAF
:1040900046F008C010F009C011F0126A136A08C097
:1040A000E6FF09C0E6FF12C0E6FF13C0E6FFF8EC2A
:1040B0003CF0E552E552E552E552FE0EDBCFE9FF5A
:1040C000EA6AE9BEEA68040ED890E936EA36E806FC
:1040D000FBE1070EE926030EEA220C0EE926000E8C
:1040E000EA22EECF10F0EFCF11F00A0E0D6E0E6A3D
:1040F00010C008F011C009F0F8EC46F004C010F050
:1041000005C011F0126A136A04C0E6FF05C0E6FF9D
:1041100012C0E6FF13C0E6FFF8EC3CF0E552E552B2
:10412000E552E5529C0EE66E6F0EE66E2DEC3CF00D
:10413000E552E552F20EE66E6F0EE66E2DEC3CF0A7
:10414000E552E552E552E7CFD9FF1200D9CFE6FF9D
:10415000E1CFD9FF0A0EE66E6F0EE66E2DEC3CF055
:10416000E552E552FE0EDB5008E1030EE66E6F0EDF
:10417000E66E2DEC3CF0E552E552FE0EDB0408E164
:10418000FF0EE66E6E0EE66E2DEC3CF0E552E5524B
:10419000FE0EDB50030808E1F80EE66E6E0EE66ECA
:1041A0002DEC3CF0E552E552FE0EDB50040808E130
:1041B000F30EE66E6E0EE66E2DEC3CF0E552E55227
:1041C000F00EE66E6E0EE66E2DEC3CF0E552E5521A
:1041D000F20EE66E6F0EE66E2DEC3CF0E552E55207
:1041E000E552E7CFD9FF1200D9CFE6FFE1CFD9FFE3
:1041F000C50EE66E6E0EE66E2DEC3CF0E552E55215
:10420000FE0EDB5008E1C00EE66E6E0EE66E2DEC83
:104210003CF0E552E552FE0EDB0408E1BA0EE66E14
:104220006E0EE66E2DEC3CF0E552E552F00EE66EB9
:104230006E0EE66E2DEC3CF0E552E552F20EE66EA7
:104240006F0EE66E2DEC3CF0E552E552E552E7CFFD
:10425000D9FF1200D9CFE6FFE1CFD9FF8D0EE66E70
:104260006E0EE66E2DEC3CF0E552E552FE0EDB5094
:1042700008E1C00EE66E6E0EE66E2DEC3CF0E552E7
:10428000E552FE0EDB0408E1BA0EE66E6E0EE66E37
:104290002DEC3CF0E552E552FE0EDB50020808E141
:1042A000890EE66E6E0EE66E2DEC3CF0E552E552A0
:1042B000780EE66E6E0EE66E2DEC3CF0E552E552A1
:1042C000FD0EDB50040808E1720EE66E6E0EE66E1F
:1042D0002DEC3CF0E552E552FD0EDB50050808E1FF
:1042E0006E0EE66E6E0EE66E2DEC3CF0E552E5527B
:1042F000F00EE66E6E0EE66E2DEC3CF0E552E552E9
:10430000F20EE66E6F0EE66E2DEC3CF0E552E552D5
:08431000E552E7CFD9FF1200CE
:08431800D9CFE6FFE1CFD9FF88
:10432000040EE126DE6ADD6ADECF10F0DDCF11F08B
:10433000126A136A11AE02D012681368D950FB0FCB
:10434000E96EFF0EDA20EA6EEE50105CEE50115866
:10435000EE501258EE5013581DE2020EDB6A030EA7
:10436000DB6A020EDBCF10F0030EDBCF11F0D8902A
:10437000115004E6050E105C000E115806E2020E04
:10438000DB2A030EEEE3DB2AECD7DF2A010ECCE3B7
:10439000DB2ACAD7040EE15C02E2E16AE552E16E73
:1043A000E552E7CFD9FF1200D9CFE6FFE1CFD9FF21
:1043B000040EE126DE6ADD6ADECF10F0DDCF11F0FB
:1043C000126A136A11AE02D012681368D950FB0F3B
:1043D000E96EFF0EDA20EA6EEE50105CEE501158D6
:1043E000EE501258EE5013581DE2020EDB6A030E17
:1043F000DB6A020EDBCF10F0030EDBCF11F0D8909A
:10440000115004E6EE0E105C000E115806E2020E8A
:10441000DB2A030EEEE3DB2AECD7DF2A010ECCE326
:10442000DB2ACAD7040EE15C02E2E16AE552E16EE2
:10443000E552E7CFD9FF1200D9CFE6FFE1CFD9FF90
:104440000F0E8116FE0EDB50F00B81128186010EDD
:10445000E66EE66AE66AE66AA7DFE552E552E552ED
:10446000E5528196010EE66EE66AE66AE66A9CDF30
:10447000E552E552E552E5520F0E8116FE0EDB388D
:10448000F00B81128186010EE66EE66AE66AE66A44
:104490008BDFE552E552E552E5528196010EE66E5C
:1044A000E66AE66AE66A80DFE552E552E552E552E1
:1044B000E552E7CFD9FF1200D9CFE6FFE1CFD9FF10
:1044C000E652936A190EE66EE66AE66AE66A6CDF01
:1044D000E552E552E552E5520F0E8116F80E8116AF
:1044E0000F0E8116300E81128186010EE66EE66A8D
:1044F000E66AE66A59DFE552E552E552E5528196F1
:10450000010EE66EE66AE66AE66A4EDFE552E552BD
:10451000E552E5520F0E8116300E81128186010E92
:10452000E66EE66AE66AE66A3FDFE552E552E55284
:10453000E5528196010EE66EE66AE66AE66A34DFC7
:10454000E552E552E552E5520F0E8116300E81120A
:104550008186010EE66EE66AE66AE66A25DFE552C6
:10456000E552E552E5528196010EE66EE66AE66A8C
:10457000E66A1ADFE552E552E552E5520F0E811662
:10458000818A8186010EE66EE66AE66AE66A0CDFDB
:10459000E552E552E552E5528196010EE66EE66A75
:1045A000E66AE66A01DFE552E552E552E552280E79
:1045B000E66E42DFE5520C0EE66E3EDFE552E55256
:1045C000E552E7CFD9FF1200D9CFE6FFE1CFD9FFFF
:1045D000020EE126DF6A010EDB6A81940F0EE66EA1
:1045E000E66AE66AE66A98DEE552E552E552E55289
:1045F0000F0E81128186E66EE66AE66AE66A8CDE56
:10460000E552E552E552E5520F0E8114E76E010EB8
:10461000E7CFDBFF81960F0EE66EE66AE66AE66A92
:104620007BDEE552E552E552E5520F0E811281869E
:10463000E66EE66AE66AE66A6FDEE552E552E55244
:10464000E5520F0E8114DF6E010EDB50DF128196F2
:10465000010EE66EE66AE66AE66A5EDEE552E5525D
:10466000E552E552DF50106E020EE15C02E2E16AB3
:10467000E552E16E1050E552E7CFD9FF1200D9CFD5
:10468000E6FFE1CFD9FFE652DF6A9EDFDF6EDFBED5
:10469000FCD7DF50E552E552E7CFD9FF1200D9CF62
:1046A000E6FFE1CFD9FF0F0E8116FE0EDB5081121F
:1046B0008186050EE66EE66AE66AE66A2DDEE5525A
:1046C000E552E552E5528196050EE66EE66AE66A27
:1046D000E66A22DEE552E552E552E552E552E7CFC1
:1046E000D9FF1200D9CFE6FFE1CFD9FF8194050EA3
:1046F000E66EE66AE66AE66A0FDEE552E552E552E4
:10470000E552FE0EDBCFE6FFCADFE552FE0EDB38D8
:10471000F00BE66EC4DFE552E552E7CFD9FF120099
:10472000D9CFE6FFE1CFD9FF8184050EE66EE66AB8
:10473000E66AE66AF1DDE552E552E552E552FE0E23
:10474000DBCFE6FFACDFE552FE0EDB38F00BE66EAA
:10475000A6DFE5528194E552E7CFD9FF1200D9CF09
:10476000E6FFE1CFD9FFFE0EDBCFE6FFD9DFE55252
:10477000E552E7CFD9FF1200D9CFE6FFE1CFD9FF4D
:10478000FE0EDBCFE6FFCCDFE552E552E7CFD9FFE7
:104790001200D9CFE6FFE1CFD9FFFD0EDBCFF6FF48
:1047A000FE0EDBCFF7FF0800F5500FE0FD0EDBCF6C
:1047B000F6FFDB2AFE0EDBCFF7FF01E3DB2A080062
:1047C000F550E66ED9DFE552E8D7E552E7CFD9FFDD
:1047D0001200D9CFE6FFE1CFD9FFE652FD0EDB5044
:1047E0000F0B106EFE0EDB50010B400DF35010242A
:1047F000DF6E7F0EDF14800FDF6EDFCFE6FF72DF2C
:10480000E552E552E552E7CFD9FF1200010EE66E00
:1048100069DFE552E66AE66ADCDFE552E55212003E
:10482000D9CFE6FFE1CFD9FF050EE126010EF36EE9
:10483000DB6E020EDB6A030EDB6A040EDB6ADF6AE4
:10484000DFCF10F0116A10BE1168FB0EDBCF12F043
:10485000FC0EDBCF13F011501318E8AE02D0133466
:1048600004D01250105C135011582DE2FD0EDBCF16
:1048700010F0FE0EDBCF11F0126A136A11AE02D0F7
:1048800012681368D950010FE96EDACFEAFF10C041
:104890000BF011C00CF012C00DF013C00EF0EECFF3
:1048A00006F0EECF07F0EECF08F0EFCF09F07FEC87
:1048B00046F005C0EDFF04C0EDFF03C0EDFF02C0F0
:1048C000EFFFDF2ABDD7010EDBCF10F0020EDBCFEA
:1048D00011F0030EDBCF12F0040EDBCF13F010C08B
:1048E00006F011C007F012C008F013C009F0050E61
:1048F000E15C02E2E16AE552E16EE552E7CFD9FF01
:104900001200D9CFE6FFE1CFD9FF020EE126DF6A20
:10491000FB0EDBCF10F0FC0EDBCF11F0FD0EDBCF7A
:1049200012F0FE0EDBCF13F0105011101210131006
:1049300005E1300EE66E20DFE552F4D0D950FB0FD2
:10494000E96EFF0EDA20EA6ED890030EEB50000AF3
:1049500008E6000EEE5C000EEE58000EEE58000E5B
:10496000EE5815E22D0EE66E07DFE552D950FB0F2B
:10497000E96EFF0EDA20EA6E000EEE6CEF1EEE22FC
:10498000EF1EEE22EF1EEF22ED52ED52ED52DE52FF
:10499000070EDD6E010EDBCF10F0000EE76E101873
:1049A000E8AE02D0103403D0E750D880105401E3B1
:1049B000B9D0010EDB04146E156A14BE156814C05C
:1049C000E6FF15C0E6FF0A0EE66EE66A29DFE5524D
:1049D000E552E552E55206C010F007C011F008C0DC
:1049E00012F009C013F006C00BF007C00CF008C0AD
:1049F0000DF009C00EF0FB0EDBCF06F0FC0EDBCF96
:104A000007F0FD0EDBCF08F0FE0EDBCF09F0B7ECB0
:104A100046F0065007100810091041E0010EDF6E45
:104A2000DB04186E196A18BE196818C0E6FF19C0B1
:104A3000E6FF0A0EE66EE66AF3DEE552E552E5525F
:104A4000E55206C014F007C015F008C016F009C002
:104A500017F006C00BF007C00CF008C00DF009C03D
:104A60000EF0FB0EDBCF06F0FC0EDBCF07F0FD0EE9
:104A7000DBCF08F0FE0EDBCF09F0B7EC46F006C046
:104A800010F007C011F008C012F009C013F0300E8A
:104A90001026000E112212221322105003D0DF50D4
:104AA00004E0300EE66E68DEE552010EDB04146EA3
:104AB000156A14BE156814C0E6FF15C0E6FF0A0E9D
:104AC000E66EE66AADDEE552E552E552E55206C015
:104AD00010F007C011F008C012F009C013F0D9504F
:104AE000FB0FE96EFF0EDA20EA6E06C00BF007C07E
:104AF0000CF008C00DF009C00EF0EECF06F0EECFBE
:104B000007F0EECF08F0EFCF09F0B7EC46F005C0A4
:104B1000EDFF04C0EDFF03C0EDFF02C0EFFF010E8B
:104B2000DB0638D7020EE15C02E2E16AE552E16E93
:104B3000E552E7CFD9FF1200D9CFE6FFE1CFD9FF89
:104B4000FD0EDBCFE6FFFE0EDBCFE6FF42DEE552D9
:104B5000E552D950F90FE96EFF0EDA20EA6EEECF7A
:104B6000E6FFEECFE6FFEECFE6FFEFCFE6FFC9DED2
:104B7000E552E552E552E552E552E7CFD9FF120082
:104B8000D9CFE6FFE1CFD9FFFD0EDBCFE6FFFE0E6A
:104B9000DBCFE6FF1EDEE552E552FB0EDBCFE6FF84
:104BA000FC0EDBCFE6FFF5DDE552E552E552E7CF3F
:104BB000D9FF1200D9CFE6FFE1CFD9FFF7C310F03C
:104BC000F8C311F0040ED89010361136E806FBE158
:104BD000450E1026020E112210500301F925E96E30
:104BE0001150FA21EA6EFE0EDBCFEFFFF92B000E1B
:104BF000FA23E552E7CFD9FF1200D9CFE6FFE1CF84
:104C0000D9FF020EE126DF6A02014151DF5C30E28A
:104C1000010EDB6ADBCF10F0100EE76E1018E8AE65
:104C200002D0E73402D0E750105C20E2DFCF10F072
:104C3000116A10BE1168040ED89010361136E806BD
:104C4000FBE1450E1026020E1122010EDBCF12F001
:104C5000136A12BE136810501224E96E115013200B
:104C6000EA6E200EEF6E010EDB2AD4D7DF2ACCD7F6
:104C7000406B020EE15C02E2E16AE552E16EE55250
:104C8000E7CFD9FF1200D9CFE6FFE1CFD9FFE65237
:104C900002014451030A52E0010A36E0030A1AE015
:104CA000010A67E1E66AE66A94DDE552E552DF6AE9
:104CB000080EDF5C0CE2DF50EA6A450FE96E020E77
:104CC000EA22EF50E66E58DDE552DF2AF1D7020105
:104CD000010E32D0080EE66EE66A7BDDE552E55243
:104CE000DF6A080EDF5C0DE2080EDF24EA6A450F7A
:104CF000E96E020EEA22EF50E66E3EDDE552DF2A53
:104D0000F0D70201020E18D0E66A010EE66E61DDF0
:104D1000E552E552DF6A080EDF5C0CE2DF50EA6A1A
:104D2000550FE96E020EEA22EF50E66E25DDE552E0
:104D3000DF2AF1D70201030E446F1CD0080EE66E85
:104D4000010EE66E46DDE552E552DF6A080EDF5CD5
:104D50000DE2080EDF24EA6A550FE96E020EEA2220
:104D6000EF50E66E09DDE552DF2AF0D70201446B11
:104D700001D0446BE552E552E7CFD9FF1200D9CFFD
:104D8000E6FFE1CFD9FFE65202014451010A1BE0E0
:104D9000010A32E1E66AE66A1CDDE552E552DF6AA5
:104DA000100EDF5C0CE2DF50EA6A450FE96E020E7E
:104DB000EA22EF50E66EE0DCE552DF2AF1D702018D
:104DC000010E446F1AD0E66A010EE66E02DDE5526E
:104DD000E552DF6A100EDF5C0CE2DF50EA6A550F25
:104DE000E96E020EEA22EF50E66EC6DCE552DF2ADB
:104DF000F1D70201446B01D0446BE552E552E7CF95
:104E0000D9FF1200D9CFE6FFE1CFD9FFE652E66A1B
:104E1000E66ADFDCE552E552DF6A100EDF5C0CE289
:104E2000DF50EA6A450FE96E020EEA22EF50E66EA5
:104E3000A3DCE552DF2AF1D7E66A010EE66EC9DC93
:104E4000E552E552DF6A100EDF5C0CE2DF50EA6AE1
:104E5000550FE96E020EEA22EF50E66E8DDCE55248
:104E6000DF2AF1D7E552E552E7CFD9FF1200D9CFBB
:104E7000E6FFE1CFD9FFFE0EDB50010B0301F76F18
:104E8000F86BFD0EDB500F0BF96FFA6BFC0EDB506D
:104E90000A0802E1610E05D0FC0EDB500D0805E1A9
:104EA000640EF36EFC0EF3CFDBFFF7C310F0F8C314
:104EB00011F0040ED89010361136E806FBE1450ECD
:104EC0001026020E112210500301F925E96E11502F
:104ED000FA21EA6EFC0EDBCFEFFFE552E7CFD9FFF8
:104EE0001200D9CFE6FFE1CFD9FF020EE126DF6A3B
:104EF000FE0EDB500301F76FF86BFD0EDB500F0B5E
:104F0000F96FFA6BF90EDBCF10F0FA0EDBCF11F070
:104F1000FB0EDBCF12F0FC0EDBCF13F010501110A4
:104F20001210131005E1300EE66E44DEE552F6D0A5
:104F3000D950F90FE96EFF0EDA20EA6ED890030E11
:104F4000EB50000A08E6000EEE5C000EEE58000E74
:104F5000EE58000EEE5815E22D0EE66E2BDEE552F1
:104F6000D950F90FE96EFF0EDA20EA6E000EEE6CF2
:104F7000EF1EEE22EF1EEE22EF1EEF22ED52ED525B
:104F8000ED52DE52070EDD6E010EDBCF10F0000E8B
:104F9000E76E1018E8AE02D0103403D0E750D88086
:104FA000105401E3BBD0010EDB04146E156A14BE6D
:104FB000156814C0E6FF15C0E6FF0A0EE66EE66A45
:104FC0002FDCE552E552E552E55206C010F007C06D
:104FD00011F008C012F009C013F006C00BF007C0B2
:104FE0000CF008C00DF009C00EF0F90EDBCF06F092
:104FF000FA0EDBCF07F0FB0EDBCF08F0FC0EDBCFA9
:1050000009F0B7EC46F0065007100810091042E00E
:10501000010EDF6EDB04186E196A18BE196818C01D
:10502000E6FF19C0E6FF0A0EE66EE66A10EC24F011
:10503000E552E552E552E55206C014F007C015F0FE
:1050400008C016F009C017F006C00BF007C00CF03E
:1050500008C00DF009C00EF0F90EDBCF06F0FA0E15
:10506000DBCF07F0FB0EDBCF08F0FC0EDBCF09F047
:10507000B7EC46F006C010F007C011F008C012F0FF
:1050800009C013F0300E1026000E11221222132236
:10509000105003D0DF5004E0300EE66E8BDDE55299
:1050A000010EDB04146E156A14BE156814C0E6FF09
:1050B00015C0E6FF0A0EE66EE66A10EC24F0E55233
:1050C000E552E552E55206C010F007C011F008C0E5
:1050D00012F009C013F0D950F90FE96EFF0EDA2073
:1050E000EA6E06C00BF007C00CF008C00DF009C056
:1050F0000EF0EECF06F0EECF07F0EECF08F0EFCFD8
:1051000009F0B7EC46F005C0EDFF04C0EDFF03C0A9
:10511000EDFF02C0EFFF010EDB0636D7020EE15CA9
:1051200002E2E16AE552E16EE552E7CFD9FF1200F3
:10513000D9CFE6FFE1CFD9FFFE0EDB500301F76FB9
:10514000F86BFD0EDB500F0BF96FFA6BFB0EDBCF2C
:10515000F6FFFC0EDBCFF7FF0800F5500FE0FB0E6B
:10516000DBCFF6FFDB2AFC0EDBCFF7FF01E3DB2A08
:105170000800F550E66E1EDDE552E8D7E552E7CFB0
:10518000D9FF1200D9CFE6FFE1CFD9FF020EE12609
:10519000DE6ADD6A02014151F36EFE0EDBCFF4FFE1
:1051A000F350F45C24E2FE0EDB50DE6EDD6ADECFEF
:1051B00010F0DDCF11F002014151000111AE02D01B
:1051C000D89003D0105C000E115811E2780EE66EF4
:1051D000710EE66EE66ADFCFE6FFAADFE552E55222
:1051E000E552E552DF2A010EE2E3DB2AE0D7020EA8
:1051F000F36EFE0EDBCFF4FFF350F45C04E2020129
:10520000020E416F03D0FE0EDBCF41F2FE0EDB50EB
:10521000010B01080DE15F0EE66E710EE66EE66AA7
:10522000FE0EDBCFE6FF84DFE552E552E552E552A4
:10523000020EE15C02E2E16AE552E16EE552E7CF7F
:10524000D9FF1200D9CFE6FFE1CFD9FF030EE12647
:10525000010EDB6AF36E020EF3CFDBFF02014305A2
:1052600019E10001010E8A1908E18B5106E10201E2
:10527000402B4151405D01E3406B0001010E881954
:1052800009E1895107E10201405103E14105406F05
:1052900001D04007DF6A02014151DF5C27E2405143
:1052A000DF5C12E1420510E1DF50100DF3CFE9FFA2
:1052B000F4CFEAFF450EE926020EEA220F0EE92698
:1052C000000EEA223C0E0FD0DF50100DF3CFE9FFA5
:1052D000F4CFEAFF450EE926020EEA220F0EE92678
:1052E000000EEA22200EEF6EDF2AD5D741C20EF063
:1052F00040C209F02CEC47F00550FE0BE8420201D9
:10530000E56F020EE503010EF3CFDBFFE551E82464
:10531000010FE76E020EE7CFDBFFE66AE66AE9EC13
:1053200023F0E552E552DF6A100EDF5C19E2010E50
:10533000DB50100DF3CF10F0F4CF11F0450E102616
:10534000020E1122DF500F011024E96E000E112011
:10535000EA6EEF50E66EBCEC23F0E552DF2AE4D7AC
:10536000E66A010EE66EE9EC23F0E552E552DF6AEB
:10537000100EDF5C19E2020EDB50100DF3CF10F0BF
:10538000F4CF11F0450E1026020E1122DF500F014E
:105390001024E96E000E1120EA6EEF50E66EBCECB0
:1053A00023F0E552DF2AE4D7030EE15C02E2E16A72
:1053B000E552E16EE552E7CFD9FF1200D9CFE6FF03
:1053C000E1CFD9FFFE0EDB5002E0000E01D0010E4E
:1053D0000201436FFE0EDB5002E0000E01D0010E11
:0A53E000426FE552E7CFD9FF12003B
:0653EA004E0EE66E770E88
:1053F000E66E2DEC3CF0E552E552C8C410F0116A9F
:10540000126A136AC8C4E6FF11C0E6FF12C0E6FFC5
:1054100013C0E6FFF8EC3CF0E552E552E552E552E8
:10542000490EE66E770EE66E2DEC3CF0E552E55245
:10543000A8C410F0A9C411F0126A136AA8C4E6FF48
:10544000A9C4E6FF12C0E6FF13C0E6FFF8EC3CF08B
:10545000E552E552E552E552470EE66E770EE66EEE
:105460002DEC3CF0E552E552AAC410F0ABC411F0AB
:10547000126A136AAAC4E6FFABC4E6FF12C0E6FFD5
:1054800013C0E6FFF8EC3CF0E552E552E552E55278
:10549000440EE66E770EE66E2DEC3CF0E552E552DA
:1054A000ACC410F0ADC411F0126A136AACC4E6FFCC
:1054B000ADC4E6FF12C0E6FF13C0E6FFF8EC3CF017
:1054C000E552E552E552E552470EE66E770EE66E7E
:1054D0002DEC3CF0E552E552AEC410F0AFC411F033
:1054E000126A136AAEC4E6FFAFC4E6FF12C0E6FF5D
:1054F00013C0E6FFF8EC3CF0E552E552E552E55208
:105500002E0EE66E770EE66E2DEC3CF0E552E5527F
:10551000B2C410F0B3C411F0126A136AB2C4E6FF49
:10552000B3C4E6FF12C0E6FF13C0E6FFF8EC3CF0A0
:10553000E552E552E552E552220EE66E770EE66E32
:105540002DEC3CF0E552E552B0C410F0B1C411F0BE
:10555000126A136AB0C4E6FFB1C4E6FF12C0E6FFE8
:1055600013C0E6FFF8EC3CF0E552E552E552E55297
:105570000C0EE66E770EE66E2DEC3CF0E552E55231
:10558000B6C410F0B7C411F0126A136AB6C4E6FFCD
:10559000B7C4E6FF12C0E6FF13C0E6FFF8EC3CF02C
:1055A000E552E552E552E552220EE66E770EE66EC2
:1055B0002DEC3CF0E552E552B4C410F0B5C411F046
:1055C000126A136AB4C4E6FFB5C4E6FF12C0E6FF70
:1055D00013C0E6FFF8EC3CF0E552E552E552E55227
:1055E000090EE66E770EE66E2DEC3CF0E552E552C4
:1055F0001200D9CFE6FFE1CFD9FFE652DF6ADF6ABA
:10560000DFCF10F0FA0EDB50E76E1018E8AE02D0D4
:10561000E73402D0E750105C23E2DFCF11F0126ACA
:1056200011BE1268FD0EDB501124E96EFE0EDB5038
:105630001220EA6EEFCF10F0DFCF13F0146A13BE22
:105640001468FB0EDB501324E96EFC0EDB501420B3
:10565000EA6EEF50105C02E0010E03D0DF2AD0D7D3
:10566000000EE552E552E7CFD9FF1200D9CFE6FF91
:10567000E1CFD9FF030EE126DF6A010EDB6A020EDD
:10568000DB6A04010051070A02E1E0EF31F0010A90
:1056900002E1ADEF31F0020A02E198EF31F0070AC2
:1056A00002E10EEF31F0060A02E1C1EF30F0070A25
:1056B00044E0030A2AE0010A02E01DEF32F0216B08
:1056C000FD0EE66E760EE66E2DEC3CF0E552E552F0
:1056D000D40EE66E760EE66E2DEC3CF0E552E55209
:1056E000AF0EE66E760EE66E2DEC3CF0E552E5521E
:1056F0008E0EE66E760EE66E2DEC3CF0E552E5522F
:105700006F0EE66E760E15EF32F01F0EE66E040E8B
:10571000E66E010EE66E040EE66E13EC3EF0E55208
:10572000E552E552E5520401206FE80402E01DEF66
:1057300032F0206B020E1CEF32F0060EE66E220EE7
:10574000E66E040EE66E010EE66E040EE66E51DFA6
:10575000106E050EE15E1050000904E10401030E15
:105760001CEF32F0060EE66E310EE66E040EE66EAB
:10577000010EE66E040EE66E3CDF106E050EE15E75
:105780001050000904E10401040E1CEF32F00A0E6F
:10579000E66E400EE66E040EE66E010EE66E040E38
:1057A000E66E27DF106E050EE15E1050000904E181
:1057B0000401060E1CEF32F00A0EE66E4D0EE66E88
:1057C000040EE66E010EE66E040EE66E12DF106E3B
:1057D000050EE15E1050000904E10401070E1CEF04
:1057E00032F0060EE66E5A0EE66E040EE66E010EFE
:1057F000E66E040EE66EFDDE106E050EE15E1050E4
:10580000000904E10401050E1CEF32F004012151EE
:10581000070A01E134D1010A02E0BEEF30F0210EA7
:10582000015D02E0BDEF30F0210E075D02E0BDEF4B
:1058300030F0470E025D05E0590E025D02E0BDEF5B
:1058400030F0310E035D05E0320E035D02E0BDEF86
:1058500030F0300E035DE76E010EE7CFDBFF300E58
:10586000065D106E300E055D0A0DF3501024E76ED4
:10587000020EE7CFDBFF530EE66E760EE66E2DECE2
:105880003CF0E552E552410EE66E760EE66E2DECEA
:105890003CF0E552E552470E0401025D16E13F0E71
:1058A000E66E760EE66E2DEC3CF0E552E552010E0A
:1058B000DB04E824E96EEA6AE9BEEA68A40EE92698
:1058C000040EEA22020EDBCFEFFF590E0401025D47
:1058D00017E13D0EE66E760EE66E2DEC3CF0E552DD
:1058E000E552010EDB50E824FF0FE96EEA6AE9BEDB
:1058F000EA68A40EE926040EEA22020EDBCFEFFFCF
:10590000010EDBCF10F0116A126A136A10AE03D0D9
:1059100011681268136810C0E6FF11C0E6FF12C0DC
:10592000E6FF13C0E6FFF8EC3CF0E552E552E55225
:10593000E552390EE66E760EE66E2DEC3CF0E55241
:10594000E552020EDBCF10F0116A126A136A10AE34
:1059500003D011681268136810C0E6FF11C0E6FF9B
:1059600012C0E6FF13C0E6FFF8EC3CF0E552E5524A
:10597000E552E552090EE66E770EE66E2DEC3CF030
:10598000E552E552270EE66E760EE66E2DEC3CF003
:10599000E552E552A4C410F0116A126A136AA4C455
:1059A000E6FF11C0E6FF12C0E6FF13C0E6FFF8EC09
:1059B0003CF0E552E552E552E552220EE66E770ED6
:1059C000E66E2DEC3CF0E552E552A5C410F0116AEC
:1059D000126A136AA5C4E6FF11C0E6FF12C0E6FF13
:1059E00013C0E6FFF8EC3CF0E552E552E552E55213
:1059F000090EE66E770EE66E2DEC3CF0E552E552B0
:105A0000150EE66E760EE66E2DEC3CF0E552E55294
:105A1000A6C410F0116A126A136AA6C4E6FF11C088
:105A2000E6FF12C0E6FF13C0E6FFF8EC3CF0E552DB
:105A3000E552E552E552220EE66E770EE66E2DEC4B
:105A40003CF0E552E552A7C410F0116A126A136ADD
:105A5000A7C4E6FF11C0E6FF12C0E6FF13C0E6FFD1
:105A6000F8EC3CF0E552E552E552E552090EE66EDF
:105A7000770EE66E2DEC3CF0E552E5527ED3060E35
:105A8000E66E640EE66E040EE66E010EE66E040E21
:105A9000E66EAFDD106E050EE15E1050000973E199
:105AA000080E04011F5D6FE11F05E96EEA6AE9BE99
